:020000040800F2
:1000000058080020A901000899350008CF330008DE
:100010009535000875140008193B00080000000021
:100020000000000000000000000000000136000891
:10003000E115000800000000D53500085936000819
:10004000C3010008C3010008C3010008C301000880
:10005000C3010008C3010008C3010008C301000870
:10006000C3010008C3010008C3010008C301000860
:10007000C3010008C3010008C3010008C301000850
:10008000C3010008C3010008C3010008C301000840
:10009000C3010008C3010008C3010008C301000830
:1000A000C3010008C3010008C3010008C301000820
:1000B000B9360008F9360008C3010008C30100087A
:1000C000C3010008C3010008C3010008C301000800
:1000D000C3010008D93A0008C3010008C3010008A1
:1000E000C3010008C3010008C301000800F002F8C2
:1000F00000F04AF80AA090E8000C82448344AAF178
:100100000107DA4501D100F03FF8AFF2090EBAE875
:100110000F0013F0010F18BFFB1A43F0010318473B
:100120007844000098440000103A24BF78C878C191
:10013000FAD8520724BF30C830C144BF04680C60ED
:10014000704700000023002400250026103A28BF35
:1001500078C1FBD8520728BF30C148BF0B60704739
:10016000662904F0C081642900F074800020704783
:100170001FB500F0AFFB04000020002103F09EFD3E
:10018000E0601FBD10B510BD00F0BCFC1146FFF7CC
:10019000EFFF03F029FD00F0DAFC03B4FFF7F2FFF4
:1001A00003BC03F0D6FC000009488047094800471B
:1001B000FEE7FEE7FEE7FEE7FEE7FEE7FEE7FEE717
:1001C000FEE7FEE704480549054A064B7047000074
:1001D00061360008ED000008580200205808002091
:1001E0005804002058040020704700000FB4044950
:1001F00010B503AA029800F05BFB10BC5DF814FB7D
:100200003000002070B5044685690068C10601D53C
:10021000302600E02026C00707D070BDD4E90121B8
:1002200030469047206A401C20626D1EF6D570BD96
:1002300070B5044685690078C00707D170BDD4E960
:10024000012120209047206A401C20626D1EF6D5B7
:1002500070BD00002DE9F0410646002410687529A4
:10026000314616A510D0AFF30080002802DA4042D4
:1002700013A507E031688A0701D512A502E04907F6
:1002800004D511A5012401E0AFF3008000210A226A
:1002900006F1240709E0B0FBF2FCB0FBF2F302FB2D
:1002A0001C00303078541846491C0028F3D12346EE
:1002B0002A463046BDE8F04100F093B80000000047
:1002C0002D0000002B000000200000002DE9F04769
:1002D0004FF0000A89460446C0F820A02046E16895
:1002E0008847002876D0252806D0D4E901219047F8
:1002F000206A401C2062F1E7E1682046002588471B
:10030000C4F81CA006460027C4F818A02A2E09D05D
:10031000304603F017FC38B304EB8708303EC8F8CA
:10032000186019E059F8041B204604EB870291611C
:10033000E1688847012F064618D1E069002820DAD5
:1003400025F020051DE0D8F8180000EB800006EB32
:1003500040003038C8F818002046E1688847064653
:1003600003F0F0FB0028EED1012F0AD02E2E08D189
:100370002046E16888477F1C0646022F45F020058D
:10038000C4DBA069002803DA404245F00105A06102
:10039000E80701D025F01005B6B1A6F141001928F3
:1003A00002D8203645F400654A463146204625608D
:1003B0004D46FFF7D5FE58B1012806D0ED1D25F0BA
:1003C000070000F1080989E704E005F1040985E761
:1003D00030468AE7206ABDE8F0877047704770476B
:1003E00070472DE9F0470D4699469246044600F1C4
:1003F00024080168880604D5E06921F01001216015
:1004000000E00120A84201DD471B00E00027A169B0
:100410007A1902EB0900081AA0612078C00602D4FC
:100420002046FFF7EFFE002608E0D4E901211AF884
:1004300006009047206A401C761C20624E45F4DB83
:100440002078C0060AD52046FFF7DCFE06E0D4E996
:10045000012130209047206A401C2062381EA7F1FD
:100460000107F4DC07E0D4E9012118F80500904702
:10047000206A401C2062281EA5F10105F3DC2046FD
:10048000FFF7D6FE2078000602D50220BDE8F087EF
:100490000120FBE770472DE9FF4F0C461E464FF049
:1004A000FF378BB0D2E90001DDF860800A908A4600
:1004B000C1F30A5505B93D46002108464FF000003A
:1004C000BAF1000F00F4400005DA00EB80004FF4B1
:1004D000400101EA50004FEA9059B9F1010F00DDE7
:1004E000B9460A9850EA4A000ED044F61050A5F2D8
:1004F000FF3545432F14B8F1000F1ED07542291E59
:100500001EDDC9F100021CE0B8F1010F4FF0000040
:1005100001D0302103E0F24305E02154401CB042F9
:10052000FBDB30460022002121540B99C1F80880E2
:10053000C1E900200FB0BDE8F08FBD1B6D1CDEE7E8
:100540004A4600DA694206A800F066FA06AB93E86C
:10055000070003AB83E8070050460A9900F040FB10
:100560008DE80700A0F500501F3800900398002D7B
:1005700009DD42F21F014A46084403A90390684678
:1005800000F09FFD08E0A0F500504A461F3803A97F
:100590000390684600F0A9FD8DE807000004000CF8
:1005A00003D04FF0FF30410800E01046B8F1000FD3
:1005B00003D00022009215461EE0751E05D400F0FF
:1005C0008DF9303262556D1EF9D5B34601220843CC
:1005D00002D000227F1C04E02078302801D10022C4
:1005E0007F1E002A099786D01DE0112D07DA00F042
:1005F00075F9303262556D1C50EA0102F5D108439D
:1006000002D00098C8B10EE00021681E05E0235C0E
:10061000625C63542254401E491C8142F7DBAB46A6
:10062000A81B401E0990002004F80B000B98099AA3
:10063000C0F80880C0E9002B7CE711264FF00008C5
:1006400059E72DE9F04F88460446D21D22F00701F4
:1006500091B0D1E90001CDE90A0103F05FFA024649
:100660000B98C00F01D02D2007E02068810701D52D
:100670002B2002E0202101EAC000032A099001D0CA
:10068000072A05DB03464146204600F085F90BE1C9
:100690002078800601D5E06900E00620B8F1650FFA
:1006A000814606D0B8F1660F18D0B8F1670F70D147
:1006B00031E00020B9F1110F009001DB112301E0BE
:1006C00009F101030AAA01A90CA8FFF7E4FEDDE97C
:1006D0000C70002609F10105834647E001204B46D6
:1006E00000904FF000470AAA01A90CA8FFF7D3FE1B
:1006F000DDE90DB00C995D46002610B909F1010045
:100700000D18B9EB050003D4C0F1FF3609F101055E
:10071000A5EB09002BE0B9F1010F01DA4FF0010957
:100720000020B9F1110F0090484601DD112300E0CF
:1007300003460AAA01A90CA8FFF7ADFEDDE90C707B
:100740004D4600268346207800070AD4AB4500DAE0
:100750005D4601A8012D04DD411911F8011C302965
:1007600007D04F4502DA17F1040F04DA0120824660
:100770000FE06D1EEEE7002F02DCED1B3E4403E0B0
:10078000781CA84200DD7D1CB81B00F1010A4FF067
:1007900000472078000703D4AA4501DB4FF0FF3A59
:1007A0000021B7F1004F0DF143088DF8431024D01C
:1007B00002202B23002F01DA7F422D230A21021E63
:1007C000A0F1010000DC5FB197FBF1FC97FBF1F2B7
:1007D00001FB1C7C17460CF1300C08F801CDEEE74C
:1007E000A8F1010003702188090501D5452100E029
:1007F0006521A0F1010800F8011C09980FA9A1EBDF
:100800000807FF1D00B10120411901EBEA70A16941
:100810003844081A401EA0612078C00602D4204641
:10082000FFF7F0FC099828B1D4E901219047206A2C
:10083000401C20622078C00622D52046FFF7E2FC4B
:100840001EE0002E04DBB34502DD01A8805D00E060
:100850003020D4E901219047206A401C2062761C98
:10086000AAF101005FEA000A0AD100F033F8C0687B
:100870000168405CD4E901219047206A401C206255
:10088000281EA5F10105DCDC07E0D4E9012118F8F8
:10089000010B9047206A401C2062381EA7F1010717
:1008A000F3DC2046FFF7C4FC032011B043E6000050
:1008B000074B70B50D467B4400F05BF804462846B4
:1008C00000F018F910B14FF0FF3070BD204670BD38
:1008D00013330000004870471402002030B5B0F117
:1008E0000A024FEA900E71F100034EEA817EB0EBEE
:1008F0000E0061EB91014FEA101E4EEA017E10EBF3
:100900000E0041EB11114FEA102E4EEA016E10EB72
:100910000E0041EB11214FEA104E4EEA014E10EB52
:100920000E0041EB1141401841F100014FEAD000A7
:1009300040EA41704FEAD10110EB80054FEA810493
:1009400044EA907444EB01046D1944EB0404521B17
:10095000A3414FF0000348BF0A3200D530BD401C10
:1009600041F1000130BD000001694A1C02610878B4
:10097000704700B58FB0CDE90131002105910549DF
:100980007944CDE9031011466846FFF79FFC0FB08C
:1009900000BD0000E5FFFFFF2DE9F0411F460446C2
:1009A00003260168072A01F4006004DB08B116A5DC
:1009B00005E016A503E008B115A500E015A521F096
:1009C00010002060A069C01EA0610FB1401EA06190
:1009D0002046FFF717FC4FB1D4E901213846904774
:1009E000206A401C2062C01C206206E0206AFAE7F0
:1009F000D4E9012115F8010B9047761EF8D2204664
:100A0000FFF716FCBDE8F0814E414E006E616E00AE
:100A1000494E4600696E66002DE9F047814616464C
:100A20008AB0334878440DC88DE80D0030487844CA
:100A3000801C03AC0DC884E80D0041F69B300844CF
:100A4000372190FBF1F290FBF1F5A5F1800501FB58
:100A500012041B3C02D56442012000E00020DFF8B4
:100A600090A080460027FA44AAF1BE0A0DE0E007F4
:100A700009D03246684607EB47010AEB810100F0D6
:100A800034FB8DE8070064107F1C002CEFD1184F59
:100A90007F44AC3F18E0E80714D007EB04100DF1D9
:100AA000180A90E80E008AE80E00C068F04201D1F2
:100AB00098190890324606A903A800F016FB03AB6C
:100AC00083E807006D10641C002DE4D132466946AE
:100AD000B8F1000F03A802D000F0F3FA01E000F033
:100AE00004FBC9E90001C9F808200AB0BDE8F08795
:100AF000583B0000007B00F08000704700487047C2
:100B0000F40100207546FFF7F9FFAE46050069467F
:100B1000534620F00700854618B020B5FFF752FB7A
:100B2000BDE820404FF000064FF000074FF00008EE
:100B30004FF0000B21F00701AC46ACE8C009ACE86F
:100B4000C009ACE8C009ACE8C0098D46704710B5D3
:100B50000446AFF300802046BDE81040FFF71DBB00
:100B60004FF0013C50F8042B51F8043B9A4221D13C
:100B7000A2EB0C03934313EACC1317D150F8042BC8
:100B800051F8043B9A4215D1A2EB0C03934313EAAC
:100B9000CC130BD150F8042B51F8043B9A4209D1E5
:100BA000A2EB0C03934313EACC13DBD04FF000000D
:100BB000704700BFD01A01BAB1FA81F101F01801F3
:100BC00022FA01F0CB40C1F12001DBB2C0B2C01A61
:100BD0002CFA01F3D11A914311EAC311E6D17047FF
:100BE0005FEA400C08BF91F0000F4FEA8C234FEAF8
:100BF000C12243EA51514FEA1C5018BF00F5F040A2
:100C00004FEA300018BF41F000415FEA6C5C00F031
:100C10002980BCF1FF3F08BF40F080407047130CB3
:100C200006BF12044FF0100C4FF0000C130E04BF5F
:100C300012020CF1080C130F04BF12010CF1040C8A
:100C4000930F04BF92000CF1020CD30F04BF5200AB
:100C50000CF1010C11464FF00002A0F11F00A0EBB7
:100C60000C00704711F0004F08BF704731F0004191
:100C70003FF4D5AF0B0C06BF09044FF0100C4FF03A
:100C8000000C0B0E04BF09020CF1080C0B0F04BF83
:100C900009010CF1040C8B0F04BF89000CF1020C4C
:100CA000CB0F04BF49000CF1010CCCF12003A0EBE9
:100CB0000C0022FA03F302FA0CF241EA030100F1FC
:100CC0000100704720F07F4C80EA030023F07F474B
:100CD000ACEB070303F57C5300F0004003F1FF0386
:100CE0002DE980494FEA154B09B44FEA144325EA30
:100CF0000B4E24EA03480FF2042606EB132749089B
:100D00003E785FEA320203FB0667C7F5000707FB80
:100D100006F64FEA54374FEAD64606F1020607FBBD
:100D2000066CCCF1005C4FEA1C472CEA074C07FB31
:100D300006F40CFB06F504EB15464FEA961634BF95
:100D400000204FF000404FEAD13706FB07FC4FEA86
:100D50001C4C0CFB0BF7D21B03FB0CF761EB0701E0
:100D60000CFB0EF7B0EB074072EB17420CFB08F7D9
:100D700034BFA2EB0742B2EB074261EB17414FEAE7
:100D80000C444FEA910706FB07FC4FEA1C4C0CFB96
:100D90000BF7B0EBC74072EB573203FB0CF734BFD5
:100DA000A2EBC742B2EBC74261EB57310CFB0EF727
:100DB000B0EBC70072EB57720CFB08F734BFA2EB25
:100DC000C702B2EBC70261EB5771039F4FEA816123
:100DD00041EA921104EBCC044FEAD1374FEA826228
:100DE00006FB07FC42EA90124FEA80604FEA1C4C77
:100DF0000CFB0BF7D21B03FB0CF761EB07010CFBA1
:100E00000EF7B0EB074072EB17420CFB08F734BF4C
:100E1000A2EB0742B2EB074261EB17414FEA8C5558
:100E20004FEA910704EB9C2406FB07FC4FEA1C4C9D
:100E30000CFB0BF7B0EBC74072EB573203FB0CF720
:100E400034BFA2EBC742B2EBC74261EB57310CFB98
:100E50000EF7B0EBC70072EB57720CFB08F734BF0C
:100E6000A2EBC702B2EBC70261EB577115EB4C2541
:100E70004FEA816141EA92114FEA82624FEAD1372B
:100E800042EA901206FB07FC44F100044FEA80603E
:100E90004FEA1C4C0CFB0BF7D21B03FB0CF761EB6E
:100EA00007010CFB0EF7B0EB074072EB17420CFB8F
:100EB00008F734BFA2EB0742B2EB074261EB1741E0
:100EC00015EB1C154FEA813141EA92414FEA82321B
:100ED00042EA90424FEA80304FEA0C7644F1000437
:100EE00048EA03434EEA0B484FF0000EB2EB080C01
:100EF00071EB030724BF624639464EEB0E0E4FF0EE
:100F0000000B0018524149414BEB0B0BB2EB080CA4
:100F100071EB03077BF1000B24BF624639464EEBB1
:100F20000E0E4FF0000B0018524149414BEB0B0BDA
:100F3000B2EB080C71EB03077BF1000B24BF624698
:100F400039464EEB0E0E51EA020718BF46F0010675
:100F500016EB0E7655F1000254F1000103D5BDE801
:100F60008901BDE80088BDE88901BDE80048B619DF
:100F7000524141EB0101A3F10103704780807F7E64
:100F80007D7C7B7A797877767675747372717170FF
:100F90006F6E6E6D6C6C6B6A6A69686867666665B1
:100FA0006464636362616160605F5F5E5E5D5D5C3F
:100FB0005C5B5B5A5A5959585857575656555555B0
:100FC0005454535352525251515050504F4F4F4E10
:100FD0004E4D4D4D4C4C4C4B4B4B4A4A4A4949495E
:100FE00048484847474747464646454545444444A0
:100FF000444343434342424242414141002B26D4B1
:10100000770021D01CB54FEA370703B44FF010002A
:101010004FF010014FF000000FBCBDE810400BF185
:10102000010BBBF1010F08BF5FEA170722BF12F1E6
:10103000010211F101014FF0004143F1000300F002
:10104000004043EA00007047F9D35708DAE746EA60
:10105000064613F1400F4FEA16461FDD13F1200F2D
:10106000DFBF16430A46002120335B42C8D0C3F1DC
:10107000200746EA064602FA07F74FEA164646EA0E
:101080000706C3F1200722FA03F201FA07F721FA53
:1010900003F14FF0000342EA0702B1E746EA020615
:1010A00046EA06464FEA164646EA0106BCBF46EA4D
:1010B0000646360C4FF000034FF000024FF00001DF
:1010C0009EE72DE9C048934630B491E8380007C840
:1010D00031EA400C48BF34EA430C03D5FFF7F2FD78
:1010E000FFF78CFFF0BCBDE800882DE9C0489346AF
:1010F00030B491E8380007C810F0804F08BF13F0F3
:10110000804F03D100F005F8FFF778FFF0BCBDE891
:10111000008820F07F4780EA030023F07F4C07EB34
:101120000C03A3F57C5300F00040A3F1FE0392F002
:10113000000F00F0B38095F0000F00F077802DE9EC
:1011400001494FEA11404FEA144621EA004800FBEA
:1011500006FC24EA064708FB06F607FB08F800FB36
:1011600007F718EB06484CEB164C4FEA124B18EBFE
:1011700007484FEA15464CEB174022EA0B4E0BFB93
:1011800006FC25EA06470EFB06F607FB0EFE0BFBE8
:1011900007F71EEB064E4CEB164C4FF000061EEB0D
:1011A000074E4CEB174B18EB0B0840F1000018EB07
:1011B0000E0B58EB000840F100008F1A4FF00001B1
:1011C0003CBFC943661B14BFB5EB040C00213CBFF8
:1011D000C943F61B4FEA17444EEA8E0E27EA044530
:1011E0004FEA1C4704FB07622CEA074C05FB07F794
:1011F0000CFB05F604FB0CFC16EB074642EB174212
:1012000016EB0C4642EB1C421BEB060658EB0202A7
:10121000414146EA9E0601D5BDE80189B619524111
:1012200041EB0101A3F10103BDE801894FEA144537
:101230004FEA114724EA054621EA074C05FB07F46B
:1012400006FB07F70CFB06F105FB0CFC11EB074155
:1012500044EB17444FEA124711EB0C4144EB1C449A
:1012600022EA074C05FB07F206FB07F70CFB06F624
:1012700005FB0CFC16EB074642EB174216EB0C463F
:1012800042EB1C456A1854F1000148BF7047B6197B
:10129000524141EB0101A3F10103704795F0000FAA
:1012A00037D04FEA11424FEA144721EA024624EAB6
:1012B000074C02FB07F106FB07F70CFB06F402FBE9
:1012C0000CFC14EB074441EB17414FEA154714EBB4
:1012D0000C4441EB1C4125EA074C02FB07F506FBD9
:1012E00007F70CFB06F602FB0CFC16EB074645EB7A
:1012F000174516EB0C4645EB1C42121951F1000143
:1013000048BF7047B619524141EB0101A3F10103F7
:1013100070474FEA14454FEA114724EA054621EA8F
:10132000074C05FB07F106FB07F70CFB06F24FF035
:10133000000605FB0CFC12EB074241EB174112EBD8
:101340000C4251EB1C4148BF7047921841EB010120
:10135000A3F10103704770B504460025206880683A
:1013600000F00100F0B12068806820F001002168E1
:10137000886000F0A7FE05460EE000F0A3FE401BCB
:10138000022809D9A06A40F01000A062E06A40F08B
:101390000100E062012070BD2068806800F001005B
:1013A0000028EAD10020F6E738B5044600250020E1
:1013B00000902068806800F0010080BB2068806891
:1013C00040F0010021688860164800681649B0FBAB
:1013D000F1F0009002E00098401E00900098002874
:1013E000F9D100F06FFE054613E000F06BFE401BE4
:1013F00002280ED9A06A40F01000A062E06A40F016
:101400000100E06200BF002084F8240000BF01203A
:1014100038BD2068806800F001000028E5D0002079
:10142000F6E700002800002040420F001FB5022010
:10143000009080030290684600F06AFF0B480C4958
:10144000086000204860002109488160C1600121D6
:1014500001610021416181614FF46021C16100F0AF
:1014600025FA034800F0ECF81FBD000000240140FD
:10147000C401002000BFFEE710B500241548006835
:1014800020F0F000134908600846006840F0800032
:10149000086004E0601CC4B2012002F073FB0E4837
:1014A000006808B1642CF5DB642C01DB012010BD61
:1014B000002404E0601CC4B2012002F063FB064873
:1014C000006808B9642CF5DB642C01DB0120EEE731
:1014D0000020ECE7040C01402481214210B50024D7
:1014E00004E0601CC4B2012002F04CFB0D4800680F
:1014F00008B1642CF5DB002404E0601CC4B20120B8
:1015000002F040FB0748006808B9642CF5DB28208E
:1015100002F038FB0348006808B1012010BD00202C
:10152000FCE700002481214270B50024002506E07C
:101530006006040EFFF7D2FF0443681CC5B2082DF5
:10154000F6DB204670BD7CB505460E4600F028F857
:10155000FFF792FFF8B9002405E0FFF7E5FF0DF86B
:101560000400601CC4B2052CF7DB9DF800009DF858
:10157000011008449DF8021008449DF80310084427
:101580009DF80410884208D19DF8000030709DF845
:101590000200287001E001207CBD0020FCE7000073
:1015A00010B50C48006820F0F0000A4908600846B1
:1015B000006840F0300008600020074908601420EF
:1015C00002F0D4FA01200549C1F8A4011E2002F05E
:1015D000D9FA10BD040C0140A481214200802142AF
:1015E000704700003EB5044600940120019007209A
:1015F00002906946074800F0A5F8064800F0DEFAB8
:101600000A21044800F022FA024800F04BF980B2A7
:101610003EBD0000C40100202DE9F04107460C4604
:101620000025002605E03846FFF7DCFF0544701C66
:10163000C6B2A642F7DBB5FBF4F080B2BDE8F0819C
:10164000F8B5044600260020009000BF94F824005E
:10165000012801D10220F8BD012084F8240000BF38
:101660002046FFF778FE0646002E62D1A06A20F4DD
:10167000885040F00200A062022000F0B9FD30491D
:101680000968B1FBF0F04000009002E00098401EB5
:10169000009000980028F9D12046FFF785FE2068C9
:1016A000806840F008002168886000F00BFD054666
:1016B00011E000F007FD401B0A280CD9A06A20F0B9
:1016C000020040F01000A06200BF002084F8240057
:1016D00000BF0120BFE72068806800F008000028F4
:1016E000E7D12068806840F004002168886000F03D
:1016F000E9FC054611E000F0E5FC401B0A280CD986
:10170000A06A20F0020040F01000A06200BF00209C
:1017100084F8240000BF01209DE72068806800F065
:1017200004000028E7D1A06A20F0020040F0010088
:10173000A06200BF002084F8240000BF30468AE782
:101740002800002038B5024600230020009000BF8A
:1017500092F82400012801D1022038BD012082F82E
:10176000240000BF4868072812D21068406B0C792B
:10177000641E04EB84051F24AC40A0430D796D1E4C
:1017800005EB85050C68AC4020431468606327E0D6
:1017900048680D2812D21068006B0C79E41F04EB26
:1017A00084051F24AC40A0430D79ED1F05EB850592
:1017B0000C68AC4020431468206311E01068C06AD4
:1017C0000C790D3C04EB84051F24AC40A0430D793B
:1017D0000D3D05EB85050C68AC4020431468E062C4
:1017E00008680A2812D31068C0680C780A3C04EB19
:1017F00044050724AC40A0430D780A3D05EB4505A0
:101800008C68AC4020431468E0600FE01068006909
:101810000C7804EB44050724AC40A0430D7805EB9D
:1018200045058C68AC402043146820610868102886
:1018300002D00868112827D1174C1068A0421ED189
:101840001068806800F40000F0B91068806840F407
:1018500000001468A0600868102815D10F480068BF
:101860000F4CB0FBF4F000EB80004000009002E071
:101870000098401E009000980028F9D104E0906A7A
:1018800040F020009062012300BF002082F8240075
:1018900000BF184661E70000002401402800002036
:1018A00040420F0001460868C06C70472DE9F041C6
:1018B0000446002700250026A84614B90120BDE8EB
:1018C000F081A06810B1606900B100BFA06A30B9B2
:1018D0000020E06284F82400204600F089F82046C9
:1018E000FFF739FD0746A06A00F01000002873D109
:1018F000002F71D1A06A20F4885040F00200A0624D
:10190000E16960680843E16840EA41000643A06875
:10191000B0F5807F02D0A068012802D14FF480701A
:1019200000E0002005436069012811D1E06838B962
:10193000A069401E4FF4006141EA4030054307E0D2
:10194000A06A40F02000A062E06A40F00100E0627E
:101950002068406820F46940284321684860206876
:10196000806821490840304321688860A068B0F54C
:10197000807F02D0A068012802D14FF4807000E07F
:101980000020B0F5807F03D1208A401E4FEA005826
:101990002068C06A20F4700040EA08002168C8622C
:1019A0002068806811490840B04208D10020E062F8
:1019B000A06A20F0020040F00100A06211E0A06ADD
:1019C00020F0020040F01000A062E06A40F0010048
:1019D000E062012705E0FFE7A06A40F01000A06286
:1019E000012738466BE70000FDF7E1FFFE0E1FFF01
:1019F00010B586B0044600BF1248806940F40070FC
:101A0000104988610846806900F40070019000BFA9
:101A100000BF00BF0846806940F0080088610846A2
:101A2000806900F00800019000BF00BF0220029012
:101A3000032003900020049002A9034800F0AEF9AF
:101A400006B010BD00100240000C0140F8B504467D
:101A50000D46002600200090002700F033FB0646CC
:101A60002068806800F4807050B1A06A40F02000C7
:101A7000A06200BF002084F8240000BF0120F8BD50
:101A80002068406800F48070F8B92068C06A00F4EB
:101A90007000D0B912E0681C80B125B100F012FBD3
:101AA000801BA8420AD9A06A40F00400A06200BFCF
:101AB000002084F8240000BF0320E0E720680068CD
:101AC00000F002000028E6D050E0022000F090FB79
:101AD00036490968B1FBF0F021680969344A1140C0
:101AE00091B92168C9689211114069B921680969E1
:101AF000304A114031B92168C9689211114009B9C1
:101B0000142117E0292115E021680969294A1140AB
:101B100021B92168C9689211114041B12168096950
:101B2000254A114029B92168C968114009B95421D1
:101B300000E0FC2100FB01F715E0681C80B125B135
:101B400000F0C0FA801BA8420AD9A06A40F0040045
:101B5000A06200BF002084F8240000BF03208EE7AD
:101B60000098401C00900098B842E6D36FF0120035
:101B700021680860A06A40F40070A0622068806854
:101B800000F46020B0F5602F0DD1E06858B9A06A6C
:101B900020F48070A062A06A00F4805018B9A06A96
:101BA00040F00100A062002069E70000280000204A
:101BB00024499224922449124992240070B5044683
:101BC000002500BF94F82400012801D1022070BD37
:101BD000012084F8240000BF2046FFF7E5FB0546FE
:101BE000002D77D1A06A40F20121884340F4807033
:101BF000A0623C492068884208D13B48006800F454
:101C0000702008B9012002E0002000E0012078B136
:101C1000A06A20F48010A0622068406800F4806010
:101C200000B3A06A20F4005040F48050A06219E094
:101C3000A06A40F48010A0622B49091F20688842E6
:101C400003D028492068884204D12748006800F45E
:101C5000806000E0002028B1A06A20F4005040F429
:101C60008050A062A06A00F4805020B1E06A20F0A9
:101C70000600E06201E00020E06200BF002084F87E
:101C8000240000BFC01E216808602068806800F43E
:101C90006020B0F5602F16D112492068884208D123
:101CA0001148006800F4702008B9012002E000200B
:101CB00000E0012038B12068806840F4A00021686D
:101CC00088600CE006E02068806840F4801021689D
:101CD000886004E000BF002084F8240000BF28468C
:101CE00075E70000002801400424014070B5044657
:101CF000002594F82100022803D00420A0630125C8
:101D000048E02068006820F00E0021680860206824
:101D1000006820F00100216808601F49206888429F
:101D200001D1012026E01C4914312068884201D1EC
:101D300010201FE0184928312068884201D1801501
:101D400018E015493C312068884201D1801411E027
:101D5000114950312068884202D14FF4803009E0A7
:101D60000D4964312068884202D14FF4801001E0AF
:101D70004FF08070084908394860012084F821003C
:101D800000BF002084F8200000BF606B10B1204627
:101D9000616B8847284670BD080002402DE9F8476E
:101DA00003460024002000258446002700226EE11F
:101DB0004FF0010808FA02F4D1F8008008EA0400A4
:101DC000A0427DD1DFF8D0A2D1F80480A8EB0A09A7
:101DD000D0453AD014DCB8F1030F50D009DCB8F18B
:101DE000000F31D0B8F1010F1CD0B8F1020F49D16A
:101DF00020E0B8F1110F18D0B8F1120F42D11EE057
:101E0000B9F5881F25D006DCB9F5803F20D0B9F59B
:101E1000801F37D11AE0B9F5001F18D0B9F5041F9B
:101E200030D117E0D1F80CC02DE0D1F80C8008F1CA
:101E3000040C28E0D1F80C8008F1080C23E0D1F85C
:101E40000C8008F10C0C1EE000BF00BF00BF00BFFB
:101E500000BF00BFD1F80880B8F1000F02D14FF0E9
:101E6000040C0BE0D1F80880B8F1010F03D14FF05A
:101E7000080C1C6102E04FF0080C5C6103E04FF0BD
:101E8000000C00E000BF00BFFF2801D8984601E029
:101E900003F104084646FF2802D84FEA820803E00F
:101EA000A2F108084FEA88084746D6F800804FF0AC
:101EB0000F0909FA07F928EA09080CFA07F900E0FE
:101EC00088E048EA0908C6F80080D1F8048008F0E4
:101ED0008058B8F1805F7DD100BFDFF8C081D8F8AD
:101EE000188048F00108DFF8B491C9F81880C84696
:101EF000D8F8188008F00108CDF8008000BF00BFB6
:101F00004FEAB9384FEA920958F829504FEA8278D7
:101F10004FEA18794FF00F0808FA09F825EA080582
:101F2000DFF87C81434502D14FF0000816E0DFF86E
:101F30007481434502D14FF001080FE0DFF868815A
:101F4000434502D14FF0020808E0DFF860814345C5
:101F500002D14FF0030801E04FF004084FEA827904
:101F60004FEA197908FA09F848EA0505DFF84081CF
:101F70004FEA920948F82950D1F8048008F48038D3
:101F8000B8F5803F0AD1DFF82C81D8F8008048EA04
:101F90000008DFF82091C9F8008009E0DFF814811B
:101FA000D8F8008028EA0008DFF80891C9F8008016
:101FB000D1F8048008F40038B8F5003F10D1DFF8FC
:101FC000F48008F10408D8F8008048EA0008DFF837
:101FD000E49000E05AE009F10409C9F800800DE03E
:101FE000DFF8D08008F10408D8F8008028EA00085B
:101FF000DFF8C09009F10409C9F80080D1F8048025
:1020000008F48018B8F5801F0ED1DFF8A88008F119
:102010000808D8F8008048EA0008DFF8989009F12D
:102020000809C9F800800DE0DFF8888008F1080889
:10203000D8F8008028EA0008DFF8789009F108094C
:10204000C9F80080D1F8048008F40018B8F5001F22
:102050000ED1DFF8608008F10C08D8F8008048EA5B
:102060000008DFF8509009F10C09C9F800800DE074
:10207000DFF8408008F10C08D8F8008028EA000852
:10208000DFF8309009F10C09C9F80080521C102AC1
:10209000FFF48EAEBDE8F88700001110001002407A
:1020A00000080140000C01400010014000140140F4
:1020B00008000140000401400AB1016101E00B0485
:1020C0000361704701480068704700003800002035
:1020D00002480068401C0149086070473800002031
:1020E00010B50848006840F0100006490860052057
:1020F00000F06AF80F2000F007F800F019F800204F
:1021000010BD00000020024070B50446074800687A
:102110004FF47A71B0FBF1F5284600F009FD00227A
:102120002146501E00F012F8002070BD280000204B
:10213000704700BF00F01F02012191404209920048
:1021400002F1E022C2F8001100BF70472DE9F05FF4
:1021500080460D461646002701F020FA074639460C
:102160002A46334601F00700C0F1070ABAF1040F0E
:1021700002D94FF0040A01E0C0F1070AD14600F18C
:10218000040ABAF1070F02D24FF0000A01E0A0F1F1
:10219000030AD4464FF0010A0AFA09FAAAF1010A21
:1021A0000AEA020A0AFA0CFA4FF0010B0BFA0CFBCE
:1021B000ABF1010B0BEA030B4AEA0B042146404644
:1021C00001F0F4F9BDE8F09F00BF00F00702064BF4
:1021D00019684FF6FF031940044B0B4343EA0221F1
:1021E000014B196000BF70470CED00E00000FA05DC
:1021F0002DE9F04385B006463DA30FCB01AC0FC4DB
:102200003FA0006800904FF0000800250027002440
:10221000A146012E30D0022E58D0102E61D139485F
:102220004468006800F0807000B301A8C4F38341E3
:10223000475C04F4803070B132484068C0F34040DD
:102240001DF8008004F4803040B12F48B0FBF8F056
:1022500000FB07F502E02D4807FB00F52948406820
:1022600000F48000B0F5800F01D1A94603E06800BA
:102270000321B0FBF1F935E02248046A04F4407010
:10228000B0F5807F05D104F0020010B14FF4004991
:102290001BE004F44070B0F5007F07D11948406A94
:1022A00000F0020010B149F640490EE004F440701D
:1022B000B0F5407F07D11348006800F4003010B13A
:1022C0004FF2244901E04FF000090BE000F0A0F9C3
:1022D0000C494968C1F38131491C4900B0FBF1F94F
:1022E00000E000BF00BF484605B0BDE8F083000035
:1022F00002030405060708090A0B0C0D0E0F101047
:10230000010200000010024000127A0000093D00A6
:10231000F8B5044600260025207800F001000028CA
:102320006BD000274348C06900F0805070B900BFEF
:102330004048C06940F080503E49C8610846C069C5
:1023400000F08050009000BF00BF01273A480068AD
:1023500000F48070B0B93848006840F480703649A5
:102360000860FFF7AFFE064606E0FFF7ABFE801BF6
:10237000642801D90320F8BD2F48006800F480705C
:102380000028F2D02B48006A00F440752DB3A088D5
:1023900000F44070A84220D02648006A20F440751E
:1023A000012026490860002008602248056205F0E7
:1023B000010090B1FFF786FE064608E0FFF782FEB7
:1023C000801B41F28831884201D90320D3E71948A4
:1023D000006A00F002000028F0D01648006A20F4DD
:1023E00040706168084313490862012F04D1084610
:1023F000C06920F08050C86100BF207800F0020062
:10240000022807D10B48406820F44040A1680843E7
:1024100008494860207800F01000102807D10548CE
:10242000406820F48000E1680843024948600020C9
:10243000A1E700000010024000700040400442424A
:1024400070B504460D4600266248006800F007009B
:10245000A8420ED25F48006820F0070028435D497B
:1024600008600846006800F00700A84201D001207B
:1024700070BD207800F00200022807D1564840685D
:1024800020F0F000A168084353494860207800F02C
:10249000010000285DD06068012806D14E48006820
:1024A00000F4003090B90120E2E76068022806D10C
:1024B0004948006800F0007040B90120D8E746485C
:1024C000006800F0020008B90120D1E742484068E6
:1024D00020F00300616808433F494860FFF7F2FDC0
:1024E00006466068012810D108E0FFF7EBFD801B6D
:1024F00041F28831884201D90320B9E73648406863
:1025000000F00C000428F0D123E06068022810D10C
:1025100008E0FFF7D7FD801B41F28831884201D9DE
:102520000320A5E72C48406800F00C000828F0D1F3
:102530000FE008E0FFF7C6FD801B41F288318842BA
:1025400001D9032094E72448406800F00C000028DB
:10255000F0D12048006800F00700A8420ED91D48BD
:10256000006820F0070028431A4908600846006800
:1025700000F00700A84201D0012079E7207800F0A0
:102580000400042807D11448406820F4E060E168A2
:10259000084311494860207800F00800082808D155
:1025A0000D48406820F46050216940EAC1000A49A2
:1025B000486000F03DF808494968C1F30311074A33
:1025C000515CC840064908600F20FFF79DFD0020C0
:1025D0004EE700000020024000100240EA440008DC
:1025E00028000020014800687047000028000020F3
:1025F00000B5FFF7F7FF04494968C1F30221034A18
:10260000515CC84000BD000000100240FA440008C0
:1026100000B5FFF7E7FF04494968C1F3C221034A47
:10262000515CC84000BD000000100240FA440008A0
:10263000F0B585B00FF2700C9CE8E01001A8A0E89E
:10264000E0101DA52D680095002100240022002324
:1026500000201A4D696801F00C05FDB1042D02D06F
:10266000082D1AD101E016481AE001ADC1F38346E6
:10267000AB5D01F480355DB1104D6D68C5F340452B
:102680001DF805400E4DB5FBF4F505FB03F202E025
:102690000C4D03FB05F2104602E000BF084800BFE6
:1026A00000BF05B0F0BD00000203040506070809DD
:1026B0000A0B0C0D0E0F101001020000001002405A
:1026C00000127A0000093D00F8B504460025207884
:1026D00000F00100002878D0F848406800F00C00B5
:1026E00004280CD0F548406800F00C00082811D1EF
:1026F000F248406800F48030B0F5803F0AD1EF48DE
:10270000006800F4003000285FD0606800285CD1C9
:102710000120F8BD00BF6068B0F5803F06D1E748F2
:10272000006840F48030E549086028E0606858B9E6
:10273000E248006820F48030E049086008460068FC
:1027400020F4802008601AE06068B0F5A02F0BD15B
:10275000DA48006840F48020D849086008460068DC
:1027600040F4803008600AE0D448006820F48030EB
:10277000D24908600846006820F48020086000BF45
:10278000606888B1FFF79EFC054606E0FFF79AFCFB
:10279000401B642801D90320BBE7C848006800F447
:1027A00000300028F2D010E0FFF78CFC054606E070
:1027B000FFF788FC401B642801D90320A9E7BF4824
:1027C000006800F400300028F2D1207800F0020008
:1027D000022857D1B948406800F00C0050B1B74802
:1027E000406800F00C00082818D1B448406800F494
:1027F000803098B9B148006800F0020020B120692B
:10280000012801D0012084E7AC48006820F0F800DE
:10281000616940EAC100A949086033E02069E8B174
:102820000120A7490860FFF74DFC054606E0FFF7C9
:1028300049FC401B022801D903206AE79F48006831
:1028400000F002000028F2D09C48006820F0F80058
:10285000616940EAC1009949086013E00020984985
:102860000860FFF72FFC054606E0FFF72BFC401B36
:10287000022801D903204CE79048006800F00200CC
:102880000028F2D1207800F0080008282DD1A06996
:10289000B8B101208B490860FFF714FC054606E03B
:1028A000FFF710FC401B022801D9032031E78348C1
:1028B000406A00F002000028F2D0012000F08CFEF7
:1028C00013E000207F490860FFF7FCFB054606E0A7
:1028D000FFF7F8FB401B022801D9032019E77748CE
:1028E000406A00F002000028F2D1207800F00400D5
:1028F000042873D100267148C06900F0805070B977
:1029000000BF6E48C06940F080506C49C8610846FD
:10291000C06900F08050009000BF00BF01266A48E7
:10292000006800F48070B0B96748006840F48070B7
:1029300065490860FFF7C6FB054606E0FFF7C2FBE6
:10294000401B642801D90320E3E65F48006800F4D7
:1029500080700028F2D000BFE068012806D15748F7
:10296000006A40F001005549086227E0E06858B964
:102970005248006A20F00100504908620846006A87
:1029800020F00400086219E0E06805280BD14B48EC
:10299000006A40F00400494908620846006A40F0B5
:1029A000010008620AE04548006A20F0010043493E
:1029B00008620846006A20F00400086200BFE06870
:1029C000A0B1FFF77FFB054609E0FFF77BFB401B4B
:1029D00041F28831884202D903209AE622E0374842
:1029E000006A00F002000028EFD012E0FFF76AFB57
:1029F000054608E0FFF766FB401B41F2883188423C
:102A000001D9032085E62D48006A00F00200002865
:102A1000F0D1012E05D12948C06920F08050274906
:102A2000C86100BFE069C8B32448406800F00C00EA
:102A3000082860D0E069022848D1002020490866B3
:102A4000FFF740FB054606E0FFF73CFB401B022872
:102A500001D903205DE61948006800F000700028E5
:102A6000F2D1206AB0F5803F07D11448406820F4C5
:102A70000030A168084311494860D4E908010843BF
:102A80000E49496821F4741108430C49486001203B
:102A90000B490866FFF716FB054607E02DE0FFF738
:102AA00011FB401B022801D9032032E603480068CD
:102AB00000F000700028F2D01FE00000001002407B
:102AC00000004242800442420070004000200C4955
:102AD0000866FFF7F7FA054606E0FFF7F3FA401B32
:102AE000022801D9032014E60648006800F00070AF
:102AF0000028F2D101E001200BE6002009E60000E9
:102B00000000424200100240042808D14FF0E021AA
:102B1000096941F004014FF0E022116107E04FF034
:102B2000E021096921F004014FF0E02211617047B2
:102B300070B504462546681EB0F1807F01D30120A0
:102B40000FE0681E4FF0E02148610F214FF0FF3089
:102B500000F02CFD00204FF0E02188610720086183
:102B6000002070BD7047704710B504460CB90120B5
:102B700010BD94F83D0028B9002084F83C002046A0
:102B800000F00CF8022084F83D00211D206800F0C0
:102B9000D3FD012084F83D000020E9E738B5044664
:102BA0001A492068884215D100BF1948C06940F011
:102BB00002001749C8610846C06900F00200009091
:102BC00000BF00BF032200211D20FFF7BFFA1D2018
:102BD000FFF7AFFA2068B0F1804F15D100BF0C4865
:102BE000C06940F001000A49C8610846C06900F0A8
:102BF0000100009000BF00BF022200211C20FFF74F
:102C0000A5FA1C20FFF795FA38BD0000000400402B
:102C10000010024001460868C06840F001000A68E0
:102C2000D0600868006840F001000A681060002069
:102C30007047704710B5044620680069C0F3400033
:102C4000D8B12068C068C0F34000B0B16FF0020096
:102C500021680861012020772068806900F0030066
:102C600018B12046FFF7E5FF05E0204600F0ADF87B
:102C7000204600F0ABF80020207720680069C0F300
:102C80008000D8B12068C068C0F38000B0B16FF098
:102C9000040021680861022020772068806900F420
:102CA000407018B12046FFF7C4FF05E0204600F051
:102CB0008CF8204600F08AF8002020772068006910
:102CC000C0F3C000D8B12068C068C0F3C000B0B184
:102CD0006FF0080021680861042020772068C0692F
:102CE00000F0030018B12046FFF7A3FF05E02046DF
:102CF00000F06BF8204600F069F80020207720688B
:102D00000069C0F30010D8B12068C068C0F300109B
:102D1000B0B16FF0100021680861082020772068AA
:102D2000C06900F4407018B12046FFF782FF05E04B
:102D3000204600F04AF8204600F048F800202077AE
:102D40002068006900F0010058B12068C06800F0F8
:102D5000010030B16FF0010021680861204600F0E9
:102D600037F820680069C0F3C01058B12068C06807
:102D7000C0F3C01030B16FF08000216808612046B8
:102D8000FFF7F0FE20680069C0F3801058B120689A
:102D9000C068C0F3801030B16FF040002168086156
:102DA000204600F057F920680069C0F3401058B180
:102DB0002068C068C0F3401030B16FF02000216877
:102DC00008612046FFF7CFFE10BD70477047000036
:102DD0002DE9FC4704468B4884420BD18A480068A1
:102DE00008B9012000E00020874908600846006813
:102DF00086490860864884427BD186480078401C1A
:102E00008449087084480088401C8349088008462B
:102E10000088B0F5FA7F05D1002008807F498048FE
:102E2000FEF791FB7B48007819284ED100207949A4
:102E3000087003210920FEF7EFFB7A490880084655
:102E4000008801F0F1F9824601F07EF807464FF064
:102E50006632754B00F07AFF054600F045FF734976
:102E600008600846006801F0BFF97149088008460B
:102E7000008801F0D9F905466C480168284601F040
:102E8000B3FA6A4908606B496848006801F0E0F9E4
:102E9000664908606648008801F0C6F981466549C0
:102EA0006248006801F0DEF88046494601F078F893
:102EB000054601F049F8CDE9000158480278584824
:102EC00001785DA0FDF792F900BF5E480078082800
:102ED0006DD2DFE800F0040F1D27353E4B5D5048F2
:102EE00000780A2190FBF1F05749085C57490870B7
:102EF0005DE085E04A4800780A2190FBF1F201FB91
:102F000012005149085C40F00100504908704EE041
:102F1000424800780A2190FBF1F04B49085C4B498C
:102F2000087044E03D4800780A2190FBF1F201FB73
:102F300012004549085C40F001004449087036E041
:102F400041483B490988405C40F001003F49087016
:102F50002DE03648006801F047F980B2642190FB0B
:102F6000F1F03949085C3949087020E02F480068C1
:102F700001F03AF980B2642190FBF1F201FB1200FA
:102F80000A2190FBF1F03049085C304908700EE0EE
:102F90002648006801F028F980B20A2190FBF1F27E
:102FA00001FB12002849085C2849087000BF00BFD7
:102FB000244801782548007800F0CAFA00F030FA79
:102FC00020480078401C1F490870084600780828EF
:102FD00001D1002008701E480078401C1C49087070
:102FE00008460078FA280BD10020087007482038DE
:102FF000006808B9012000E0002004492039086079
:10300000BDE8FC878401002024000020A0012242AA
:1030100044010020220000201200002015000020A2
:10302000140000201600002066664A3F1C000020A5
:103030001800002000007A442564256425312E33D1
:103040006600000021000020000000202000002079
:10305000230000207047704701460022002391F8AA
:10306000392091F83A3042EA030070472DE9F047E1
:103070000446206805682068C668206847694FF0E4
:103080000008C14605F00F08B8F1000F0AD105F09D
:10309000200038B106F0200020B1204600F0B0FB3F
:1030A000BDE8F087B8F1000F6DD007F0010018B946
:1030B00006F49070002866D005F0010030B106F4E7
:1030C000807018B1E06B40F00100E06305F004008F
:1030D00030B107F0010018B1E06B40F00200E0638E
:1030E00005F0020030B107F0010018B1E06B40F0CC
:1030F0000400E06305F0080030B107F0010018B1EA
:10310000E06B40F00800E063E06B68B305F020007E
:1031100028B106F0200010B1204600F071FB2068B5
:103120004069C0F38019E06B00F0080010B9B9F1F4
:10313000000F22D0204600F043FB2068406900F0D9
:103140004000B0B12068406920F04000216848612B
:10315000606B50B11748616B4863606BFEF7C6FD4A
:1031600010B1606B416B88470CE02046FFF773FF9E
:1031700008E02046FFF76FFF04E02046FFF76BFFF3
:103180000020E0638CE705F0800030B106F080009D
:1031900018B1204600F06CFC82E705F0400030B129
:1031A00006F0400018B1204600F01AFB78E700BF97
:1031B00076E70000AD37000810B504460CB90120D1
:1031C00010BDA06900B100E000BF94F8390028B933
:1031D000002084F83800204600F028F8242084F8E5
:1031E00039002068C06820F400502168C86020467B
:1031F00000F05AFB2068006920F4904021680861C3
:103200002068406920F02A00216848612068C06871
:1032100040F400502168C8600020E063202084F85A
:10322000390084F83A000020CAE7000010B586B0E3
:10323000044625492068884244D100BF234880695C
:1032400040F00400214988610846806900F00400CC
:10325000019000BF00BF00BF0846806940F4804075
:1032600088610846806900F48040019000BF00BF7B
:1032700000BF0846806940F0010088610846806907
:1032800000F00100019000BF00BF4815029002202D
:103290000390012004900320059002A90C48FEF73A
:1032A0007DFD4FF4806002900020039002A9084841
:1032B000FEF774FD2520FEF73CFF03221146252072
:1032C000FEF744FF06B010BD003801400010024078
:1032D0000008014010B5034693F83A0020282FD18A
:1032E00001B10AB9012010BD00BF93F838000128D0
:1032F00001D10220F7E7012083F8380000BF99626E
:103300009A85DA850020D863222083F83A0000BF2E
:10331000002083F8380000BF1868C06840F480704F
:103320001C68E0601868406940F001001C6860613A
:103330001868C06840F020001C68E0600020D2E7F8
:103340000220D0E71D4A0168914236D11C49098804
:1033500001F4004189BB1A49098801F4804171B127
:10336000184909780A2903D00021154A118024E060
:103370001349098841F40041114A11801DE01149A7
:1033800009780D2906D10E49098841F480410C4A7B
:10339000118012E00B490978094A1288C2F30D0224
:1033A000094B995406490988491C054A1180114660
:1033B0000988C72901DD00211180704700380140CC
:1033C00034000020360000203C000020704700BF81
:1033D000FEE7000000B585B000BF0F48806940F0EF
:1033E00010000D4988610846806900F010000090C7
:1033F00000BF00BFFF200190012002900390032036
:1034000004900122FF210548FEF756FE01A903485A
:10341000FEF7C4FC05B000BD0010024000100140E2
:1034200010B5012004490860052000F0ABFB002026
:103430000249C1F8900110BD9081214200802142D3
:1034400000B585B000BF3448806940F008003249BB
:1034500088610846806900F00800009000BF00BF46
:1034600000BF0846806940F0100088610846806906
:1034700000F01000009000BF00BF00BF0846806948
:1034800040F0010088610846806900F0010000906A
:1034900000BF00BF00BF2148406820F0E0601F4926
:1034A00048600846406840F00070486000BF38201F
:1034B00001900120029003900320049001A9184874
:1034C000FEF76CFC4FF4E050019001A91548FEF79F
:1034D00065FC002208211248FEF7EEFD00222021A3
:1034E0000F48FEF7E9FD012210210D48FEF7E4FD2B
:1034F00000224FF480610B48FEF7DEFD00224FF4FE
:1035000000610848FEF7D8FD00224FF480510548BD
:10351000FEF7D2FD05B000BD0010024000000140E2
:10352000000C01400010014000F00101064A11604A
:10353000C0F34001054AC2F8AC11C0F38001024A51
:103540000832116070470000A801224200002242A8
:1035500070B506460D46002412E046FA04F000F06D
:1035600001000A49086000200949C1F894010520BA
:1035700000F008FB0120054908310860601CC4B256
:10358000082CEADB2846FFF7CFFF70BD8C81214273
:103590000080214200BFFEE770470000024800683B
:1035A000C0F30220704700000CED00E010B50028C9
:1035B00007DA0A07140E054A00F00F031B1FD45444
:1035C00003E00A07130E024A135410BD18ED00E081
:1035D00000E400E07047000008B508490968C90820
:1035E0004FF47A72B1FBF2F14143009100BF00BF8A
:1035F00000994A1E00920029F9D108BD2800002038
:10360000704730B58FB005460024012005900004B6
:1036100006900020079002200C90C1030D910E959A
:1036200005A8FFF751F804460CB100BFFEE70F20D4
:10363000009002200190002002904FF480600390DF
:103640000020049002216846FEF7FAFE04460CB101
:1036500000BFFEE70FB030BD10B5FEF739FD10BD5D
:103660001148006840F001000F49086008464068B2
:103670000E4908400C494860084600680C4908405B
:10368000094908600846006820F480200860084660
:10369000406820F4FE0048604FF41F008860C803B3
:1036A0000449086070470000001002400000FFF865
:1036B000FFFFF6FE08ED00E010B50248FFF7BAFA8A
:1036C00010BD00008401002070B505460C464FF087
:1036D0008040084908600846446000218160C56058
:1036E000016180218161FFF73FFA0248FFF792FAFA
:1036F00070BD00008401002010B50248FFF79AFA5F
:1037000010BD00004401002070B505460C46084875
:10371000084908600846446000218160C560016175
:1037200080218161FFF720FA0248FFF773FA70BD2C
:10373000000400404401002000220268184B984217
:1037400008D0B0F1804F05D0164B984202D0164BEE
:10375000984203D122F070024B681A43104B9842F2
:1037600008D0B0F1804F05D00E4B984202D00E4BDE
:10377000984203D122F44072CB681A4322F08002AF
:103780004B691A4302608B68C3620B688362044B07
:10379000984201D10B690363012343617047000024
:1037A000002C0140000400400008004070B50546B0
:1037B0006C6A0020E085E0842046FFF74CFC70BD79
:1037C0000168C96821F490710268D1600168496993
:1037D00021F0010102685161202180F83A10704700
:1037E00010B504462068C06820F040002168C86019
:1037F000202084F839002046FFF7E8FD002010BDA6
:1038000070B5044694F83A0022284AD1A068B0F571
:10381000805F13D1A56A206940B920684068C0F371
:1038200008002880A06A801CA06219E02068406817
:10383000C0B22880A06A401CA06211E0206938B99B
:1038400020684068C1B2A26A501CA062117007E0F3
:103850002068406800F07F01A26A501CA0621170CD
:10386000E08D401E80B2E085C8B92068C06820F0B5
:1038700020002168C8602068C06820F4807021683A
:10388000C8602068406920F001002168486120205C
:1038900084F83A002046FFF755FD002070BD002057
:1038A000FCE70220FAE700002DE9F041044600257C
:1038B0002068006920F44050E168084321680861ED
:1038C0002169A06808436169084305432068C0680E
:1038D00041F20C61884328432168C8602068406930
:1038E00020F44070A1690843216848615F4920685D
:1038F00088425CD1FEF78CFE00EBC00101EB0010AA
:1039000061688900B0FBF1F6FEF782FE00EBC001B2
:1039100001EB001061688900B0FBF1F06421B0FB9D
:10392000F1F000EBC00101EB0010A6EB80003221AA
:1039300001EB00106421B0FBF1F000F0F006FEF79F
:1039400067FE00EBC00101EB001061688900B0FB6D
:10395000F1F06421B0FBF1F006EB0016FEF758FE23
:1039600000EBC00101EB001061688900B0FBF1F7CA
:10397000FEF74EFE00EBC00101EB0010616889000C
:10398000B0FBF1F06421B0FBF1F000EBC00101EB02
:103990000010A7EB8000322101EB00106421B0FB86
:1039A000F1F000F00F003044216888605BE0FEF722
:1039B0001FFE00EBC00101EB001061688900B0FB45
:1039C000F1F6FEF715FE00EBC00101EB0010616897
:1039D0008900B0FBF1F06421B0FBF1F000EBC00115
:1039E00001EB0010A6EB8000322101EB00106421F6
:1039F000B0FBF1F000F0F006FEF7FAFD00EBC001BD
:103A000001EB001061688900B0FBF1F06421B0FBAC
:103A1000F1F006EB0016FEF7EBFD00EBC00101EB49
:103A2000001061688900B0FBF1F7FEF7E1FD00EBE3
:103A3000C00101EB001061688900B0FBF1F0642166
:103A4000B0FBF1F000EBC00101EB0010A7EB800030
:103A5000322101EB00106421B0FBF1F000F00F0007
:103A6000304421688860BDE8F081000000380140E2
:103A7000014691F8390021282CD18868B0F5805F83
:103A80000FD10A6A1088C0F308000B6858600869F3
:103A900018B9086A801C086209E0086A401C0862BC
:103AA00005E00B6A581C086218780B685860C88CCF
:103AB000401E80B2C88458B90868C06820F08000F1
:103AC0000B68D8600868C06840F040000B68D86098
:103AD000002070470220FCE710B500240C48FFF7D7
:103AE000C5FA00BF01E0641C00BF0948FFF7B4FA43
:103AF0002028F8D100BF002401E0641C00BF01228F
:103B000004490348FFF7E6FB0028F6D100BF10BDCB
:103B1000040100203600002000BFFEE7490050EA03
:103B2000C12018BF04204A0D18BF40F0010040F228
:103B3000FF72B2EB515F08BF40F00200012808BFDE
:103B40000520704730380A2801D201207047002034
:103B5000704700BF7047000010B504460420FEF710
:103B6000D3FF0148046010BD2C00002030B504468E
:103B7000002504E04FF47A7000F004F86D1CA542B3
:103B8000F8D330BD70B5034600224FF0E0267569CA
:103B90000D4E366803FB06F44FF0E026B16910E0E5
:103BA0004FF0E026B06988420BD0884202D20E1A4C
:103BB000324402E02E1A0E4432440146A24200D39F
:103BC00000E0EDE700BF70BD2C00002000BF054AFB
:103BD000126802F04002002AF9D0C2B2014B1B1D4C
:103BE0001A6070470038014086B0FEF779FA4FF44A
:103BF000E010FFF706FD4820FFF7AEFF4FF4165028
:103C000000F040F8FFF7E6FBFFF71AFCFDF70EFCAB
:103C100041F61F4140F69F70FFF756FD41F61F41E8
:103C20001320FFF771FDFFF7D5FBFFF709FC00BF7D
:103C30001048806940F010000E498861084680698C
:103C400000F01000019000BF00BF4FF40C50029034
:103C50000120039004900320059002A90648FEF776
:103C60009DF801200549086000200549C1F8B4010C
:103C700000BFFEE70010024000100140A4012242F4
:103C80000000224210B5044609480A490860084667
:103C9000446000218160C160016181610C2141614A
:103CA000FFF78AFA012204490248FFF713FB10BD0F
:103CB00000380140040100203600002010B5002922
:103CC0000AD00878002807D005487844FCF748FF58
:103CD000002801D0002010BD0248784410BD00002B
:103CE000EE080000E608000021F00042A2F1605258
:103CF000B2F5801F01F0004328BFD2F17F6C0BD9D1
:103D00005FEA001C43EAC20242EB507018BF7047E2
:103D100028BF20F001007047B2F5801FBCBF1846D5
:103D200070474FEA410C1CF5001F02D2084600F014
:103D300056BB70B500F0B4F800000089FFF7F6BF7D
:103D40004FF00040A0F5800070470000DFF848C148
:103D500070B51CEA111E1EBF1CEA13159EEA0C0F5B
:103D600095EA0C0F00F06F8081EA030423EA4C13FC
:103D70004EEAD47E21EA4C1141F4801143F48013C1
:103D8000AE44A1FB024CA0FB0365AEF17F7E361969
:103D900055EB0C05A1FB034C4CF10003A0FB021CEE
:103DA00016EB0C06654153F10003094218BF46F0BB
:103DB000010613F4007F0BD14FEA03314FEA0530BF
:103DC000340341EA155140EA16506FF003020AE04D
:103DD0004FEAC3214FEAC520F40241EA555140EAB7
:103DE00056506FF0020202EB2E4201EB025585EABB
:103DF000CE710AD05FEA440C18BF24F0004450F1A1
:103E0000000041F1000120EAD47040F2FE7C6245DE
:103E100000D270BDA84214BF4FF080444FF0404420
:103E2000002E08BF0024BEF1806FA8BFA1F1C041E1
:103E3000BDE8704080F282804FF0000001F1C04187
:103E400001F0004170479EEA0C0F0CEA131518BFF1
:103E500095EA0C0F06D04FF0000081EA030E0EF039
:103E6000004170BD00F01CF88900013E00F007B869
:103E700000F009B84FEA430C5FEA5C5C08D081EAC5
:103E8000030100F05BB84FEA410C5FEA5C5CF6D1DD
:103E90004FF00000014970470000FF070000F87F65
:103EA0000EF1020E2EF0030E5EF8046B364205D4BE
:103EB000012A43EB030515F5001F12D8012841EB39
:103EC000010C1CF5001F0CD80ED14FEAD17C15F562
:103ED000001F0CEB4C0C0CF1020C08BF4CEBD37C1C
:103EE00004E04FF0080C01E04FEAD37C0CEB4C05EA
:103EF00026FA05F606F00706B6F1040C06D20EEB1C
:103F0000860CBDE870404CF0010C6047DFE80CF017
:103F1000090B02024FF000414FF00000A1F5002113
:103F200070BD19461046012851EB010418BFD4F5A5
:103F3000001484BF002001F0004170BD0808A0F506
:103F400000114FEA3101704743004FEAD30C4FEAAA
:103F50003C0C43401FBF40070CF1605113F0FE4F73
:103F600070471CF0006F03D100200CF00041704737
:103F70000CF0004343EA507010B540EACC0000F06A
:103F8000E8F900BF000000924FEA0001FFF7D6BF3A
:103F90004FF000414FF00000A1F5002170470000F4
:103FA00090EA010F48BF81F0004100F12E82421AD1
:103FB0003CBF801A89184FEAD0524FF07F4C1CEA60
:103FC000410FA2EBD15318BF9CEA026F00F03B8077
:103FD0004FF0004C4CEA00204CEA012121FA03FC8E
:103FE00010EB0C0C1ED202F1FF325FEA1C2040EBFA
:103FF000C25038BF70471CF07F0F4FEA400C18BF0B
:10400000BCF17F4F38BF7047C3F12003994008BF10
:1040100020F00100BCF17F4F38BF7047A0F1C040D5
:1040200000F0DDB94FEA3C00000A40EBC25028BF67
:104030001CF0FF0F4FEA400CE6D018BFBCF17F4FD9
:1040400038BF7047EAE79CEA026F05D010EA5C0FC0
:1040500008BF00F00040704710B500F07AF900BFCB
:1040600064FBBE3E4FF47F0C1CEAD0121EBF1CEA5C
:10407000D11392EA0C0F93EA0C0F00F0858090EABE
:10408000010F48BF42F4807240F4000C41F400007C
:104090002CF07F4120F07F4000B58142A2EB03026B
:1040A0000FF2081CACEB504EC0F100009EF800E08F
:1040B0004FEA4E0E00FB0EFC38BF49004FEA2C1CA5
:1040C00002F5FA020CFB0EF34FEACE1E4FEA112C5A
:1040D0004FEAC1210EEB635E42EB22420EFB0CFC69
:1040E0004FEA1C5300FB03114FEA112C4FEA013138
:1040F0000EFB0CFC4FEADC4C00FB0C11C14228BF4C
:1041000009184CEB03335DF804EB10EB410143EB72
:10411000C250B2F57C0F38BF704729D512F0F00FAE
:104120001CBF00F1C04000F0004070470081828356
:104130008485868788898B8C8D8E8F9192939596B6
:1041400097999A9C9D9FA0A2A3A5A7A8AAACAEB040
:10415000B2B3B5B7B9BCBEC0C2C5C7C9CCCED1D445
:10416000D7D9DCDFE2E6E9ECF0F3F7FAFE00000075
:104170004FEA400C0CF1807CBCF17E4F28BF7047A9
:10418000B0F1C04000F02BB990EA010F0CEAD11356
:1041900048BF42F48072624538BF634507D213F4CA
:1041A0007F0F16D080EA010000F00040704710B584
:1041B00000F0CFF8097EFC3E00F005B880EA01006F
:1041C00000F00040704780EA010000F0004000F07D
:1041D00006B912F47F0F04BF0248704780EA01005D
:1041E00000F0FDB80000C07FC10DD1F19E0206DBDA
:1041F0004FEA002343F0004323FA02F070470042E5
:1042000007D54FEA4001B1F1FE4F02D24FF0000056
:10421000704710B500F09DF8499224800020704747
:104220006FEA200070470000B0FA80F310FA03F242
:10423000C3F19D030AD0D90501EB1220530638BF04
:10424000704700F1010008BF20F001007047000036
:104250004FF47F0C1CEAD0121EBF1CEAD11392EA65
:104260000C0F93EA0C0F00F0478090EA010F48BF53
:1042700042F480724FF0004C4CEA00204CEA0121DD
:1042800002EB0302A0FB0113A2F50002002918BFF4
:1042900043F001035B0028BF4FEA330342EB2242A5
:1042A0005FEA132C4CEBC2502EBFBCEB436FB2F550
:1042B0007C0F70474FEA036CBCF1004F08BF20F041
:1042C0000100B2F57C0F38BF70470BD582F0FF02BA
:1042D00012F5803FC8BF704700F1C040D8BF00F062
:1042E0000040704700F5000C5FEA4C0C48BF704777
:1042F000B0F1C04000F073B890EA010F0CEAD1139E
:1043000048BF42F48072624538BF634504D280EAF8
:10431000010000F00040704710B500F01AF800BF2F
:104320008900013E00F007B800F009B85FEA410CCF
:104330005FEA1C6C08D080EA010000F050B85FEA28
:10434000400C5FEA1C6CF6D14FF00040A0F58000F5
:1043500070470EF1020E2EF0030E5EF8044B24425D
:1043600004D44FEA4102B2F17F4F11D84FEA400323
:10437000B3F17F4F0CD80ED14FEAD07CB2F17F4F12
:104380000CEB4C0C0CF1020C08BF4CEBD17C04E0A4
:104390004FF0080C01E04FEAD17C0CEB4C0324FAFF
:1043A00003F404F00704B4F1040C06D20EEB840C01
:1043B000BDE810404CF0010C6047DFE80CF0070846
:1043C00002024FF00040A0F5800010BD08464200F8
:1043D00018BFD2F1807288BF00F0004010BDFF21ED
:1043E00041EAD050C005704780F0004090EA010FCC
:1043F0007FF5DDAD81F0004100F007B890EA010FD4
:1044000048BF81F000413FF5D2AD421A04D882F096
:104410000042A0EB020011444FEAD0524FF07F4C13
:104420001CEA410FA2EBD15318BF9CEA026F4AD09D
:104430004FF0004C4CEA00204CEA012121FA03FC29
:10444000B0EB0C0C0FD412F0FE0F36D05FEA4C002C
:104450001DD5001240EBC25038BF70471CF03F0F13
:1044600018BF70470BE0A2F101025FEA1C2040EB8D
:10447000C25038BF70471CF07F0F18BF7047C3F1A0
:104480002003994014BF401E20F0010070478008AF
:104490004FEA122308BF7047B0FA80FCA2EB0C026F
:1044A000CCF1280C60FA0CF093EA122F04BF00EB59
:1044B000C25070474FEAC3707047130A5FEADC10BE
:1044C00008BF7047F6E79CEA026F04D010EA5C0F61
:1044D00008BF0020704710B5FFF73BFF40DFF63EF6
:1044E00081F000407047FCF7ACB80000000000000D
:1044F0000000010203040607080900000000010291
:104500000304000002400000000000A000000000C2
:1045100005400000000000C8000000000C40000042
:104520000000409C00000000194000000020BCBEBC
:104530000000000034400000BFC91B8E00000004D2
:10454000B5400000504BCFD06607E2CF010000001D
:104550006C4100003E8251AADFEEA734010000004A
:10456000D9420000DCB5A0E23A301F97FFFFFFFF01
:10457000B4450000FD25A0C8E9A3C14FFFFFFFFF20
:10458000FF3F00000000008000000000FF3F00002F
:104590000000008000000000D4450008000000205A
:1045A0003C00000028010008104600083C000020E4
:1045B0001C080000440100081C000000430000002B
:1045C000F8FFFFFF0C0000000E0000000F000000CD
:1045D0002E000000FC60DAF266B6BEE0FEF6EE3EAB
:1045E0009C7A9E8E01000000000000000000000088
:1045F00000000000000000000000000000A24A04CB
:1046000000000000000000000000000000000000AA
:04000005080000ED02
:00000001FF
