:020000040800F2
:10000000100800208901000871220008A7200008BC
:100010006D22000859030008AD2700080000000009
:10002000000000000000000000000000D9220008CD
:100030005D03000800000000AD2200083123000825
:10004000A3010008A3010008A3010008A301000800
:10005000A3010008A3010008A3010008A3010008F0
:10006000A3010008A3010008A3010008A3010008E0
:10007000A3010008A3010008A3010008A3010008D0
:10008000A3010008A3010008A3010008A3010008C0
:10009000A3010008A3010008A3010008A3010008B0
:1000A000A3010008A3010008A3010008A3010008A0
:1000B000A301000891230008A3010008A301000880
:1000C000A3010008A3010008A3010008A301000880
:1000D000A30100086D270008A3010008A301000880
:1000E000A3010008A3010008A301000800F002F822
:1000F00000F03AF80AA090E8000C82448344AAF188
:100100000107DA4501D100F02FF8AFF2090EBAE885
:100110000F0013F0010F18BFFB1A43F0010318473B
:10012000F02D0000102E0000103A24BF78C878C1CE
:10013000FAD8520724BF30C830C144BF04680C60ED
:10014000704700000023002400250026103A28BF35
:1001500078C1FBD8520728BF30C148BF0B60704739
:100160001FB51FBD10B510BD00F033F81146FFF7E5
:10017000F7FF02F04DFB00F051F803B4FFF7F2FF78
:1001800003BC02F015FB00000948804709480047FE
:10019000FEE7FEE7FEE7FEE7FEE7FEE7FEE7FEE737
:1001A000FEE7FEE704480549054A064B7047000094
:1001B00039230008ED00000810020020100800207C
:1001C00010040020100400207047704770477047EB
:1001D0007047754600F02CF8AE4605006946534658
:1001E00020F00700854618B020B5FFF7DBFFBDE81B
:1001F00020404FF000064FF000074FF000084FF08E
:10020000000B21F00701AC46ACE8C009ACE8C0091E
:10021000ACE8C009ACE8C0098D46704710B504468B
:10022000AFF300802046BDE81040FFF7A6BF0000F6
:1002300000487047AC01002070B5044600252068D6
:10024000806800F00100F0B12068806820F00100B3
:100250002168886000F0F4FD05460EE000F0F0FD36
:10026000401B022809D9A06A40F01000A062E06A91
:1002700040F00100E062012070BD2068806800F05D
:1002800001000028EAD10020F6E7000038B5044656
:100290000025002000902068806800F0010080BBED
:1002A0002068806840F00100216888601648006876
:1002B0001649B0FBF1F0009002E00098401E00905B
:1002C00000980028F9D100F0BBFD054613E000F0CE
:1002D000B7FD401B02280ED9A06A40F01000A062B2
:1002E000E06A40F00100E06200BF002084F82400D2
:1002F00000BF012038BD2068806800F001000028A0
:10030000E5D00020F6E700002000002040420F006A
:100310001FB50220009080030290684600F0B6FEF0
:100320000B480C49086000204860002109488160A2
:10033000C160012101610021416181614FF46021AF
:10034000C16100F071F9034800F038F81FBD0000EA
:10035000002401407C01002000BFFEE77047000040
:100360003EB50446009401200190072002906946A2
:10037000074800F0A5F8064800F0DEFA0A21044814
:1003800000F022FA024800F04BF980B23EBD0000B6
:100390007C0100202DE9F04107460C46002500268F
:1003A00005E03846FFF7DCFF0544701CC6B2A642E4
:1003B000F7DBB5FBF4F080B2BDE8F081F8B5044698
:1003C00000260020009000BF94F82400012801D1ED
:1003D0000220F8BD012084F8240000BF2046FFF76A
:1003E0002BFF0646002E62D1A06A20F4885040F010
:1003F0000200A062022000F0B9FD30490968B1FB9B
:10040000F0F04000009002E00098401E009000983C
:100410000028F9D12046FFF739FF2068806840F0B6
:1004200008002168886000F00BFD054611E000F02F
:1004300007FD401B0A280CD9A06A20F0020040F0FA
:100440001000A06200BF002084F8240000BF01203B
:10045000BFE72068806800F008000028E7D1206826
:10046000806840F004002168886000F0E9FC0546DF
:1004700011E000F0E5FC401B0A280CD9A06A20F02E
:10048000020040F01000A06200BF002084F82400A9
:1004900000BF01209DE72068806800F0040000286C
:1004A000E7D1A06A20F0020040F00100A06200BF86
:1004B000002084F8240000BF30468AE72000002096
:1004C00038B5024600230020009000BF92F82400B7
:1004D000012801D1022038BD012082F8240000BF8C
:1004E0004868072812D21068406B0C79641E04EB30
:1004F00084051F24AC40A0430D796D1E05EB8505D6
:100500000C68AC4020431468606327E048680D28FD
:1005100012D21068006B0C79E41F04EB84051F24D1
:10052000AC40A0430D79ED1F05EB85050C68AC4090
:1005300020431468206311E01068C06A0C790D3CF8
:1005400004EB84051F24AC40A0430D790D3D05EB61
:1005500085050C68AC4020431468E06208680A28EE
:1005600012D31068C0680C780A3C04EB44050724D9
:10057000AC40A0430D780A3D05EB45058C68AC40C6
:1005800020431468E0600FE0106800690C7804EB09
:1005900044050724AC40A0430D7805EB45058C6865
:1005A000AC402043146820610868102802D0086815
:1005B000112827D1174C1068A0421ED110688068FE
:1005C00000F40000F0B91068806840F4000014687E
:1005D000A0600868102815D10F4800680F4CB0FBC8
:1005E000F4F000EB80004000009002E00098401E14
:1005F000009000980028F9D104E0906A40F02000B3
:100600009062012300BF002082F8240000BF18463A
:1006100061E70000002401402000002040420F005C
:1006200001460868C06C70472DE9F0410446002778
:1006300000250026A84614B90120BDE8F081A06875
:1006400010B1606900B100BFA06A30B90020E0625B
:1006500084F82400204600F089F82046FFF7ECFDDE
:100660000746A06A00F01000002873D1002F71D156
:10067000A06A20F4885040F00200A062E16960683E
:100680000843E16840EA41000643A068B0F5807F76
:1006900002D0A068012802D14FF4807000E0002051
:1006A00005436069012811D1E06838B9A069401E8E
:1006B0004FF4006141EA4030054307E0A06A40F092
:1006C0002000A062E06A40F00100E062206840681B
:1006D00020F46940284321684860206880682149E7
:1006E0000840304321688860A068B0F5807F02D060
:1006F000A068012802D14FF4807000E00020B0F51E
:10070000807F03D1208A401E4FEA00582068C06ACB
:1007100020F4700040EA08002168C8622068806800
:1007200011490840B04208D10020E062A06A20F0E0
:10073000020040F00100A06211E0A06A20F0020077
:1007400040F01000A062E06A40F00100E062012782
:1007500005E0FFE7A06A40F01000A06201273846DC
:100760006BE70000FDF7E1FFFE0E1FFF10B586B03E
:10077000044600BF1248806940F400701049886147
:100780000846806900F40070019000BF00BF00BF00
:100790000846806940F0080088610846806900F0DA
:1007A0000800019000BF00BF0220029003200390C8
:1007B0000020049002A9034800F0AEF906B010BD75
:1007C00000100240000C0140F8B504460D4600261A
:1007D00000200090002700F033FB06462068806868
:1007E00000F4807050B1A06A40F02000A06200BF09
:1007F000002084F8240000BF0120F8BD2068406874
:1008000000F48070F8B92068C06A00F47000D0B9B4
:1008100012E0681C80B125B100F012FB801BA842D9
:100820000AD9A06A40F00400A06200BF002084F84A
:10083000240000BF0320E0E72068006800F0020009
:100840000028E6D050E0022000F090FB364909680D
:10085000B1FBF0F021680969344A114091B921686F
:10086000C9689211114069B921680969304A11407B
:1008700031B92168C9689211114009B9142117E0F2
:10088000292115E021680969294A114021B9216807
:10089000C9689211114041B121680969254A114086
:1008A00029B92168C968114009B9542100E0FC2127
:1008B00000FB01F715E0681C80B125B100F0C0FA1B
:1008C000801BA8420AD9A06A40F00400A06200BFC1
:1008D000002084F8240000BF03208EE70098401C0D
:1008E00000900098B842E6D36FF0120021680860CB
:1008F000A06A40F40070A0622068806800F4602064
:10090000B0F5602F0DD1E06858B9A06A20F480706E
:10091000A062A06A00F4805018B9A06A40F00100FB
:10092000A062002069E700002000002024499224F2
:10093000922449124992240070B50446002500BF54
:1009400094F82400012801D1022070BD012084F810
:10095000240000BF2046FFF799FC0546002D77D103
:10096000A06A40F20121884340F48070A0623C49B3
:100970002068884208D13B48006800F4702008B91C
:10098000012002E0002000E0012078B1A06A20F4FC
:100990008010A0622068406800F4806000B3A06A04
:1009A00020F4005040F48050A06219E0A06A40F4A6
:1009B0008010A0622B49091F2068884203D0284973
:1009C0002068884204D12748006800F4806000E075
:1009D000002028B1A06A20F4005040F48050A062AA
:1009E000A06A00F4805020B1E06A20F00600E062C6
:1009F00001E00020E06200BF002084F8240000BF76
:100A0000C01E216808602068806800F46020B0F58E
:100A1000602F16D112492068884208D11148006819
:100A200000F4702008B9012002E0002000E001205D
:100A300038B12068806840F4A000216888600CE02C
:100A400006E02068806840F480102168886004E037
:100A500000BF002084F8240000BF284675E700008E
:100A6000002801400424014070B50446002594F894
:100A70002100022803D00420A063012548E020685B
:100A8000006820F00E00216808602068006820F0EF
:100A90000100216808601F492068884201D10120B7
:100AA00026E01C4914312068884201D110201FE043
:100AB000184928312068884201D1801518E015496D
:100AC0003C312068884201D1801411E01149503135
:100AD0002068884202D14FF4803009E00D4964312A
:100AE0002068884202D14FF4801001E04FF08070FE
:100AF000084908394860012084F8210000BF00201F
:100B000084F8200000BF606B10B12046616B8847FD
:100B1000284670BD080002402DE9F847034600242E
:100B2000002000258446002700226EE14FF00108D6
:100B300008FA02F4D1F8008008EA0400A0427DD14E
:100B4000DFF8D0A2D1F80480A8EB0A09D0453AD04A
:100B500014DCB8F1030F50D009DCB8F1000F31D02C
:100B6000B8F1010F1CD0B8F1020F49D120E0B8F163
:100B7000110F18D0B8F1120F42D11EE0B9F5881F3D
:100B800025D006DCB9F5803F20D0B9F5801F37D1DC
:100B90001AE0B9F5001F18D0B9F5041F30D117E0DD
:100BA000D1F80CC02DE0D1F80C8008F1040C28E03D
:100BB000D1F80C8008F1080C23E0D1F80C8008F182
:100BC0000C0C1EE000BF00BF00BF00BF00BF00BF95
:100BD000D1F80880B8F1000F02D14FF0040C0BE0FF
:100BE000D1F80880B8F1010F03D14FF0080C1C6157
:100BF00002E04FF0080C5C6103E04FF0000C00E0F5
:100C000000BF00BFFF2801D8984601E003F10408A7
:100C10004646FF2802D84FEA820803E0A2F10808FE
:100C20004FEA88084746D6F800804FF00F0909FAC6
:100C300007F928EA09080CFA07F900E088E048EA11
:100C40000908C6F80080D1F8048008F08058B8F18F
:100C5000805F7DD100BFDFF8C081D8F8188048F0F0
:100C60000108DFF8B491C9F81880C846D8F8188090
:100C700008F00108CDF8008000BF00BF4FEAB93886
:100C80004FEA920958F829504FEA82784FEA1879CA
:100C90004FF00F0808FA09F825EA0805DFF87C810B
:100CA000434502D14FF0000816E0DFF87481434558
:100CB00002D14FF001080FE0DFF86881434502D10F
:100CC0004FF0020808E0DFF86081434502D14FF0A1
:100CD000030801E04FF004084FEA82794FEA1979DE
:100CE00008FA09F848EA0505DFF840814FEA920959
:100CF00048F82950D1F8048008F48038B8F5803FCE
:100D00000AD1DFF82C81D8F8008048EA0008DFF823
:100D10002091C9F8008009E0DFF81481D8F800803C
:100D200028EA0008DFF80891C9F80080D1F80480AB
:100D300008F40038B8F5003F10D1DFF8F48008F16E
:100D40000408D8F8008048EA0008DFF8E49000E0E2
:100D50005AE009F10409C9F800800DE0DFF8D080FD
:100D600008F10408D8F8008028EA0008DFF8C090ED
:100D700009F10409C9F80080D1F8048008F480184A
:100D8000B8F5801F0ED1DFF8A88008F10808D8F860
:100D9000008048EA0008DFF8989009F10809C9F8CE
:100DA00000800DE0DFF8888008F10808D8F800809E
:100DB00028EA0008DFF8789009F10809C9F80080EE
:100DC000D1F8048008F40018B8F5001F0ED1DFF840
:100DD000608008F10C08D8F8008048EA0008DFF8C5
:100DE000509009F10C09C9F800800DE0DFF840804F
:100DF00008F10C08D8F8008028EA0008DFF83090E5
:100E000009F10C09C9F80080521C102AFFF48EAEBB
:100E1000BDE8F887000011100010024000080140F2
:100E2000000C014000100140001401400800014086
:100E3000000401400AB1016101E00B040361704745
:100E40000148006870470000300000200248006838
:100E5000401C0149086070473000002010B5084868
:100E6000006840F0100006490860032000F06AF8AE
:100E70000F2000F007F800F019F8002010BD000066
:100E80000020024070B50446074800684FF47A71AC
:100E9000B0FBF1F5284600F009FD00222146501E66
:100EA00000F012F8002070BD20000020704700BF45
:100EB00000F01F02012191404209920002F1E0225C
:100EC000C2F8001100BF70472DE9F05F80460D4663
:100ED0001646002701F0CEF9074639462A46334622
:100EE00001F00700C0F1070ABAF1040F02D94FF070
:100EF000040A01E0C0F1070AD14600F1040ABAF180
:100F0000070F02D24FF0000A01E0A0F1030AD44615
:100F10004FF0010A0AFA09FAAAF1010A0AEA020ADA
:100F20000AFA0CFA4FF0010B0BFA0CFBABF1010BB8
:100F30000BEA030B4AEA0B042146404601F0A2F9F2
:100F4000BDE8F09F00BF00F00702064B19684FF69E
:100F5000FF031940044B0B4343EA0221014B196084
:100F600000BF70470CED00E00000FA052DE9F043EA
:100F700085B006463DA30FCB01AC0FC43FA000686F
:100F800000904FF00008002500270024A146012E04
:100F900030D0022E58D0102E61D1394844680068F4
:100FA00000F0807000B301A8C4F38341475C04F4EF
:100FB000803070B132484068C0F340401DF8008076
:100FC00004F4803040B12F48B0FBF8F000FB07F587
:100FD00002E02D4807FB00F52948406800F4800036
:100FE000B0F5800F01D1A94603E068000321B0FBF2
:100FF000F1F935E02248046A04F44070B0F5807FCE
:1010000005D104F0020010B14FF400491BE004F4D4
:101010004070B0F5007F07D11948406A00F0020027
:1010200010B149F640490EE004F44070B0F5407F3D
:1010300007D11348006800F4003010B14FF2244982
:1010400001E04FF000090BE000F0A0F90C494968FD
:10105000C1F38131491C4900B0FBF1F900E000BF48
:1010600000BF484605B0BDE8F08300000203040558
:10107000060708090A0B0C0D0E0F101001020000E4
:101080000010024000127A0000093D00F8B5044645
:1010900000260025207800F0010000286BD00027F2
:1010A0004348C06900F0805070B900BF4048C06933
:1010B00040F080503E49C8610846C06900F0805049
:1010C000009000BF00BF01273A48006800F480701C
:1010D000B0B93848006840F4807036490860FFF7BE
:1010E000AFFE064606E0FFF7ABFE801B642801D981
:1010F0000320F8BD2F48006800F480700028F2D06B
:101100002B48006A00F440752DB3A08800F44070AD
:10111000A84220D02648006A20F4407501202649C4
:101120000860002008602248056205F0010090B1C7
:10113000FFF786FE064608E0FFF782FE801B41F2BD
:101140008831884201D90320D3E71948006A00F0AA
:1011500002000028F0D01648006A20F44070616850
:10116000084313490862012F04D10846C06920F0E2
:101170008050C86100BF207800F00200022807D12B
:101180000B48406820F44040A16808430849486083
:10119000207800F01000102807D10548406820F49E
:1011A0008000E1680843024948600020A1E7000090
:1011B00000100240007000404004424270B50446F6
:1011C0000D4600266248006800F00700A8420ED2D3
:1011D0005F48006820F0070028435D490860084622
:1011E000006800F00700A84201D0012070BD2078FF
:1011F00000F00200022807D15648406820F0F000B5
:10120000A168084353494860207800F00100002895
:101210005DD06068012806D14E48006800F40030B7
:1012200090B90120E2E76068022806D149480068C9
:1012300000F0007040B90120D8E74648006800F08F
:10124000020008B90120D1E74248406820F00300BD
:10125000616808433F494860FFF7F2FD0646606851
:10126000012810D108E0FFF7EBFD801B41F2883127
:10127000884201D90320B9E73648406800F00C00E5
:101280000428F0D123E06068022810D108E0FFF7BD
:10129000D7FD801B41F28831884201D90320A5E7A0
:1012A0002C48406800F00C000828F0D10FE008E05E
:1012B000FFF7C6FD801B41F28831884201D9032027
:1012C00094E72448406800F00C000028F0D1204842
:1012D000006800F00700A8420ED91D48006820F001
:1012E000070028431A4908600846006800F0070014
:1012F000A84201D0012079E7207800F004000428FA
:1013000007D11448406820F4E060E16808431149BF
:101310004860207800F00800082808D10D4840688F
:1013200020F46050216940EAC1000A49486000F099
:101330003DF808494968C1F30311074A515CC840A8
:10134000064908600F20FFF79DFD00204EE70000D2
:101350000020024000100240F62E0008200000206D
:1013600001480068704700002000002000B5FFF72A
:10137000F7FF04494968C1F30221034A515CC840A0
:1013800000BD000000100240062F000800B5FFF766
:10139000E7FF04494968C1F3C221034A515CC840D0
:1013A00000BD000000100240062F0008F0B585B017
:1013B0000FF2700C9CE8E01001A8A0E8E0101DA559
:1013C0002D680095002100240022002300201A4DE2
:1013D000696801F00C05FDB1042D02D0082D1AD169
:1013E00001E016481AE001ADC1F38346AB5D01F49C
:1013F00080355DB1104D6D68C5F340451DF8054061
:101400000E4DB5FBF4F505FB03F202E00C4D03FBBA
:1014100005F2104602E000BF084800BF00BF05B05B
:10142000F0BD000002030405060708090A0B0C0DB5
:101430000E0F1010010200000010024000127A008E
:1014400000093D00F8B504460025207800F00100B1
:10145000002878D0F848406800F00C0004280CD030
:10146000F548406800F00C00082811D1F2484068A7
:1014700000F48030B0F5803F0AD1EF48006800F4F6
:10148000003000285FD0606800285CD10120F8BDE2
:1014900000BF6068B0F5803F06D1E748006840F4BF
:1014A0008030E549086028E0606858B9E248006883
:1014B00020F48030E04908600846006820F480206D
:1014C00008601AE06068B0F5A02F0BD1DA48006818
:1014D00040F48020D84908600846006840F4803015
:1014E00008600AE0D448006820F48030D2490860DF
:1014F0000846006820F48020086000BF606888B15A
:10150000FFF79EFC054606E0FFF79AFC401B6428A7
:1015100001D90320BBE7C848006800F40030002868
:10152000F2D010E0FFF78CFC054606E0FFF788FCE0
:10153000401B642801D90320A9E7BF48006800F4D4
:1015400000300028F2D1207800F00200022857D1A4
:10155000B948406800F00C0050B1B748406800F04E
:101560000C00082818D1B448406800F4803098B9BD
:10157000B148006800F0020020B12069012801D0C4
:10158000012084E7AC48006820F0F800616940EA77
:10159000C100A949086033E02069E8B10120A749EA
:1015A0000860FFF74DFC054606E0FFF749FC401BCD
:1015B000022801D903206AE79F48006800F0020072
:1015C0000028F2D09C48006820F0F800616940EAE9
:1015D000C1009949086013E0002098490860FFF7AE
:1015E0002FFC054606E0FFF72BFC401B022801D923
:1015F00003204CE79048006800F002000028F2D178
:10160000207800F0080008282DD1A069B8B1012089
:101610008B490860FFF714FC054606E0FFF710FC55
:10162000401B022801D9032031E78348406A00F0BB
:1016300002000028F2D0012000F03AFE13E0002062
:101640007F490860FFF7FCFB054606E0FFF7F8FB63
:10165000401B022801D9032019E77748406A00F0AF
:1016600002000028F2D1207800F00400042873D191
:1016700000267148C06900F0805070B900BF6E4804
:10168000C06940F080506C49C8610846C06900F0EC
:101690008050009000BF00BF01266A48006800F437
:1016A0008070B0B96748006840F480706549086090
:1016B000FFF7C6FB054606E0FFF7C2FB401B6428A8
:1016C00001D90320E3E65F48006800F48070002839
:1016D000F2D000BFE068012806D15748006A40F008
:1016E00001005549086227E0E06858B95248006A8D
:1016F00020F00100504908620846006A20F004000A
:10170000086219E0E06805280BD14B48006A40F0F8
:101710000400494908620846006A40F00100086276
:101720000AE04548006A20F0010043490862084683
:10173000006A20F00400086200BFE068A0B1FFF773
:101740007FFB054609E0FFF77BFB401B41F2883138
:10175000884202D903209AE622E03748006A00F066
:1017600002000028EFD012E0FFF76AFB054608E010
:10177000FFF766FB401B41F28831884201D9032004
:1017800085E62D48006A00F002000028F0D1012E05
:1017900005D12948C06920F080502749C86100BFA1
:1017A000E069C8B32448406800F00C00082860D005
:1017B000E069022848D1002020490866FFF740FB75
:1017C000054606E0FFF73CFB401B022801D9032039
:1017D0005DE61948006800F000700028F2D1206A28
:1017E000B0F5803F07D11448406820F40030A1686C
:1017F000084311494860D4E9080108430E49496883
:1018000021F4741108430C49486001200B49086613
:10181000FFF716FB054607E02DE0FFF711FB401B25
:10182000022801D9032032E60348006800F0007066
:101830000028F2D01FE000000010024000004242E9
:10184000800442420070004000200C490866FFF707
:10185000F7FA054606E0FFF7F3FA401B022801D924
:10186000032014E60648006800F000700028F2D15A
:1018700001E001200BE6002009E6000000004242E2
:1018800000100240042808D14FF0E021096941F01E
:1018900004014FF0E022116107E04FF0E0210969F7
:1018A00021F004014FF0E0221161704770B5044649
:1018B0002546681EB0F1807F01D301200FE0681E2D
:1018C0004FF0E02148610F214FF0FF3000F0DAFCCB
:1018D00000204FF0E021886107200861002070BDE2
:1018E0007047704710B504460CB9012010BD94F83C
:1018F0003D0028B9002084F83C00204600F00CF898
:10190000022084F83D00211D206800F05FFD0120C9
:1019100084F83D000020E9E738B504460D49206809
:10192000884215D100BF0C48C06940F002000A4946
:10193000C8610846C06900F00200009000BF00BF07
:10194000032200211D20FFF7BFFA1D20FFF7AFFA89
:1019500038BD000000040040001002400146086845
:10196000C06840F001000A68D0600868006840F074
:1019700001000A68106000207047704710B50446E7
:1019800020680069C0F34000D8B12068C068C0F387
:101990004000B0B16FF0020021680861012020779B
:1019A0002068806900F0030018B12046FFF7E5FFCA
:1019B00005E0204600F0ADF8204600F0ABF800202E
:1019C000207720680069C0F38000D8B12068C06823
:1019D000C0F38000B0B16FF00400216808610220FC
:1019E00020772068806900F4407018B12046FFF726
:1019F000C4FF05E0204600F08CF8204600F08AF88D
:101A00000020207720680069C0F3C000D8B12068AA
:101A1000C068C0F3C000B0B16FF008002168086171
:101A2000042020772068C06900F0030018B1204628
:101A3000FFF7A3FF05E0204600F06BF8204600F01A
:101A400069F80020207720680069C0F30010D8B141
:101A50002068C068C0F30010B0B16FF010002168BA
:101A60000861082020772068C06900F4407018B130
:101A70002046FFF782FF05E0204600F04AF82046A6
:101A800000F048F8002020772068006900F001008D
:101A900058B12068C06800F0010030B16FF001005B
:101AA00021680861204600F037F820680069C0F31B
:101AB000C01058B12068C068C0F3C01030B16FF0DA
:101AC0008000216808612046FFF70AFF206800694E
:101AD000C0F3801058B12068C068C0F3801030B1E6
:101AE0006FF0400021680861204600F01FF920686F
:101AF0000069C0F3401058B12068C068C0F34010BE
:101B000030B16FF02000216808612046FFF7E9FE40
:101B100010BD7047704700002DE9F0470446774834
:101B2000844271D176480078401C75490870084697
:101B30000078642832D10020087003210920FEF7C4
:101B400029FC704908800846008801F075F8814634
:101B500000F0C4FF07464FF066326B4B00F0C0FE4A
:101B6000054600F08BFE694908600846006801F0F0
:101B700043F8674908800846008801F05DF805468B
:101B800062480168284601F037F9604908606149F8
:101B90005E48006801F064F85C4908605E480078BF
:101BA000082818D2DFE800F0041831485458616E54
:101BB00054480088B0F57A7F0ADD524800884FF417
:101BC0007A7190FBF1F05549085C5549087002E0C4
:101BD00000205349087067E04A48008864280FDDF8
:101BE000484800884FF47A7190FBF1F201FB120033
:101BF000642190FBF1F04949085C4949087002E012
:101C00000020474908704FE075E03E4800880A28E8
:101C10000EDD3C480088642190FBF1F201FB1200CC
:101C20000A2190FBF1F03D49085C3D49087002E053
:101C300000203B49087037E0324800880A2190FBB9
:101C4000F1F201FB12003549085C354908702BE0C0
:101C500000203349087027E030482D490988405C4E
:101C600040F001002E4908701EE02848006800F08E
:101C7000C3FF80B2642190FBF1F02849085C284939
:101C8000087011E02148006800F0B6FF80B26421BE
:101C900090FBF1F201FB12000A2190FBF1F01F49C9
:101CA000085C1F49087000BF00BF1B4801781C4832
:101CB000007800F0B9FA00F01FFA17480078401CCD
:101CC0001549087008460078082801D100200870DE
:101CD00014480078401C1349087008460078FA2818
:101CE00009D1002008701048006808B9012000E000
:101CF00000200D490860BDE8F08700003C0100208D
:101D00001E0000201200002066664A3F18000020D6
:101D10001400002000007A441D0000200000002074
:101D20001C0000201F0000208001224270477047E5
:101D300001460022002391F8392091F83A3042EA16
:101D4000030070472DE9F0470446206805682068C5
:101D5000C668206847694FF00008C14605F00F08C3
:101D6000B8F1000F0AD105F0200038B106F02000CC
:101D700020B1204600F08EFBBDE8F087B8F1000FDF
:101D80006DD007F0010018B906F49070002866D0F5
:101D900005F0010030B106F4807018B1E06B40F03E
:101DA0000100E06305F0040030B107F0010018B154
:101DB000E06B40F00200E06305F0020030B107F094
:101DC000010018B1E06B40F00400E06305F008008A
:101DD00030B107F0010018B1E06B40F00800E0639B
:101DE000E06B68B305F0200028B106F0200010B1C8
:101DF000204600F04FFB20684069C0F38019E06B7B
:101E000000F0080010B9B9F1000F22D0204600F010
:101E100021FB2068406900F04000B0B120684069B3
:101E200020F0400021684861606B50B11748616B39
:101E30004863606BFEF718FE10B1606B416B88471A
:101E40000CE02046FFF773FF08E02046FFF76FFF26
:101E500004E02046FFF76BFF0020E0638CE705F00D
:101E6000800030B106F0800018B1204600F04AFC36
:101E700082E705F0400030B106F0400018B120467E
:101E800000F0F8FA78E700BF76E700004124000888
:101E900010B504460CB9012010BDA06900B100E0E6
:101EA00000BF94F8390028B9002084F83800204693
:101EB00000F028F8242084F839002068C06820F455
:101EC00000502168C860204600F038FB2068006997
:101ED00020F49040216808612068406920F02A00C1
:101EE000216848612068C06840F400502168C860DB
:101EF0000020E063202084F8390084F83A000020B4
:101F0000CAE7000010B586B004462549206888421B
:101F100044D100BF2348806940F004002149886112
:101F20000846806900F00400019000BF00BF00BFB8
:101F30000846806940F4804088610846806900F462
:101F40008040019000BF00BF00BF0846806940F09C
:101F5000010088610846806900F00100019000BF1F
:101F600000BF481502900220039001200490032036
:101F7000059002A90C48FEF7CFFD4FF48060029057
:101F80000020039002A90848FEF7C6FD2520FEF7B1
:101F90008EFF032211462520FEF796FF06B010BDE6
:101FA00000380140001002400008014010B503460F
:101FB00093F83A0020282FD101B10AB9012010BDB1
:101FC00000BF93F83800012801D10220F7E7012073
:101FD00083F8380000BF99629A85DA850020D863BB
:101FE000222083F83A0000BF002083F8380000BFA9
:101FF0001868C06840F480701C68E0601868406928
:1020000040F001001C6860611868C06840F0200062
:102010001C68E0600020D2E70220D0E71D4A01687A
:10202000914236D11C49098801F4004189BB1A4903
:10203000098801F4804171B1184909780A2903D04F
:102040000021154A118024E01349098841F4004118
:10205000114A11801DE0114909780D2906D10E4958
:10206000098841F480410C4A118012E00B4909783B
:10207000094A1288C2F30D02094B9954064909888E
:10208000491C054A118011460988C72901DD002134
:1020900011807047003801402C0000202E000020E5
:1020A00034000020704700BFFEE7000000B585B097
:1020B00000BF0F48806940F010000D498861084654
:1020C000806900F01000009000BF00BFFF20019069
:1020D000012002900390032004900122FF21054873
:1020E000FEF7A8FE01A90348FEF716FD05B000BDE6
:1020F000001002400010014010B5012004490860A2
:10210000052000F061FB00200249C1F8900110BDDC
:10211000908121420080214200B585B000BF344843
:10212000806940F00800324988610846806900F003
:102130000800009000BF00BF00BF0846806940F063
:10214000100088610846806900F01000009000BF10
:1021500000BF00BF0846806940F001008861084662
:10216000806900F00100009000BF00BF00BF21485F
:10217000406820F0E0601F4948600846406840F031
:102180000070486000BF3820019001200290039049
:102190000320049001A91848FEF7BEFC4FF4E0505C
:1021A000019001A91548FEF7B7FC0022082112484A
:1021B000FEF740FE002220210F48FEF73BFE0122E1
:1021C00010210D48FEF736FE00224FF480610B48C7
:1021D000FEF730FE00224FF400610848FEF72AFEA9
:1021E00000224FF480510548FEF724FE05B000BDE3
:1021F0000010024000000140000C014000100140AE
:1022000000F00101064A1160C0F34001054AC2F81E
:10221000AC11C0F38001024A08321160704700001F
:10222000A80122420000224270B506460D46002455
:1022300012E046FA04F000F001000A4908600020AC
:102240000949C1F89401052000F0BEFA01200549B2
:1022500008310860601CC4B2082CEADB2846FFF78E
:10226000CFFF70BD8C8121420080214200BFFEE77C
:102270007047000002480068C0F302207047000069
:102280000CED00E010B5002807DA0A07140E054A25
:1022900000F00F031B1FD45403E00A07130E024A79
:1022A000135410BD18ED00E000E400E0704700009A
:1022B00008B508490968C9084FF47A72B1FBF2F110
:1022C0004143009100BF00BF00994A1E00920029BF
:1022D000F9D108BD20000020704730B58FB0054609
:1022E00000240120059000040690002007900220A1
:1022F0000C90C1030D910E9505A8FFF7A3F80446B5
:102300000CB100BFFEE70F200090022001900020DA
:1023100002904FF4806003900020049002216846F0
:10232000FEF74CFF04460CB100BFFEE70FB030BD16
:1023300010B5FEF78BFD10BD1148006840F001009C
:102340000F490860084640680E4908400C4948603B
:10235000084600680C4908400949086008460068BA
:1023600020F4802008600846406820F4FE004860A1
:102370004FF41F008860C8030449086070470000DC
:10238000001002400000FFF8FFFFF6FE08ED00E03D
:1023900010B50248FFF7F2FA10BD00003C01002022
:1023A00070B505460C460748074908600846446072
:1023B00000218160C5600161FFF794FA0248FFF7D0
:1023C000CDFA70BD000400403C01002000220268EC
:1023D000184B984208D0B0F1804F05D0164B984268
:1023E00002D0164B984203D122F070024B681A4378
:1023F000104B984208D0B0F1804F05D00E4B984258
:1024000002D00E4B984203D122F44072CB681A439B
:1024100022F080024B691A4302608B68C3620B682A
:102420008362044B984201D10B690363012343612A
:1024300070470000002C01400004004000080040EC
:1024400070B505466C6A0020E085E0842046FFF701
:102450006EFC70BD0168C96821F490710268D1609A
:102460000168496921F0010102685161202180F869
:102470003A10704710B504462068C06820F040004C
:102480002168C860202084F839002046FFF70AFE42
:10249000002010BD70B5044694F83A0022284AD1B5
:1024A000A068B0F5805F13D1A56A206940B92068A3
:1024B0004068C0F308002880A06A801CA06219E070
:1024C00020684068C0B22880A06A401CA06211E069
:1024D000206938B920684068C1B2A26A501CA06265
:1024E000117007E02068406800F07F01A26A501C6C
:1024F000A0621170E08D401E80B2E085C8B92068EE
:10250000C06820F020002168C8602068C06820F4FE
:1025100080702168C8602068406920F0010021684F
:102520004861202084F83A002046FFF777FD00201C
:1025300070BD0020FCE70220FAE700002DE9F04121
:10254000044600252068006920F44050E1680843F3
:10255000216808612169A06808436169084305434F
:102560002068C06841F20C61884328432168C86034
:102570002068406920F44070A169084321684861DF
:102580005F49206888425CD1FEF700FF00EBC00184
:1025900001EB001061688900B0FBF1F6FEF7F6FE72
:1025A00000EBC00101EB001061688900B0FBF1F0A5
:1025B0006421B0FBF1F000EBC00101EB0010A6EBD1
:1025C0008000322101EB00106421B0FBF1F000F03B
:1025D000F006FEF7DBFE00EBC00101EB00106168C6
:1025E0008900B0FBF1F06421B0FBF1F006EB0016BE
:1025F000FEF7CCFE00EBC00101EB00106168890022
:10260000B0FBF1F7FEF7C2FE00EBC00101EB0010DA
:1026100061688900B0FBF1F06421B0FBF1F000EBE0
:10262000C00101EB0010A7EB8000322101EB00108C
:102630006421B0FBF1F000F00F00304421688860A5
:102640005BE0FEF793FE00EBC00101EB0010616858
:102650008900B0FBF1F6FEF789FE00EBC00101EB4B
:10266000001061688900B0FBF1F06421B0FBF1F06B
:1026700000EBC00101EB0010A6EB8000322101EB62
:1026800000106421B0FBF1F000F0F006FEF76EFEE2
:1026900000EBC00101EB001061688900B0FBF1F0B4
:1026A0006421B0FBF1F006EB0016FEF75FFE00EBD5
:1026B000C00101EB001061688900B0FBF1F7FEF783
:1026C00055FE00EBC00101EB001061688900B0FB12
:1026D000F1F06421B0FBF1F000EBC00101EB001060
:1026E000A7EB8000322101EB00106421B0FBF1F078
:1026F00000F00F00304421688860BDE8F0810000E0
:1027000000380140014691F8390021282CD1886811
:10271000B0F5805F0FD10A6A1088C0F308000B681B
:102720005860086918B9086A801C086209E0086ADC
:10273000401C086205E00B6A581C086218780B6898
:102740005860C88C401E80B2C88458B90868C068F8
:1027500020F080000B68D8600868C06840F0400036
:102760000B68D860002070470220FCE710B50024F9
:102770000C48FFF7E7FA00BF01E0641C00BF0948FE
:10278000FFF7D6FA2028F8D100BF002401E0641C2E
:1027900000BF012204490348FFF708FC0028F6D1D6
:1027A00000BF10BDFC0000202E00002000BFFEE78F
:1027B00000BF704710B504460420FFF763F80148D6
:1027C000046010BD2400002070B5034600224FF0C5
:1027D000E02675690D4E366803FB06F44FF0E026DF
:1027E000B16910E04FF0E026B06988420BD0884212
:1027F00002D20E1A324402E02E1A0E44324401462E
:10280000A24200D300E0EDE700BF70BD240000202D
:10281000FEF724FB4FF4E010FFF75FFD4820FFF7C1
:10282000C9FF4FF4165000F00DF8FFF73FFCFFF71B
:1028300073FCFDF76DFD41F61F411320FFF7B0FD5E
:1028400000BFFEE710B5044609480A49086008467B
:10285000446000218160C160016181610C2141619E
:10286000FFF716FB012204490248FFF79FFB10BD4A
:1028700000380140FC0000202E00002021F0004222
:10288000A2F16052B2F5801F01F0004328BFD2F1DF
:102890007F6C0BD95FEA001C43EAC20242EB507026
:1028A00018BF704728BF20F001007047B2F5801FA5
:1028B000BCBF184670474FEA410C1CF5001F02D2FE
:1028C000084600F094BA70B500F0B4F80000008932
:1028D000FFF7F6BF4FF00040A0F580007047000002
:1028E000DFF848C170B51CEA111E1EBF1CEA1315A3
:1028F0009EEA0C0F95EA0C0F00F06F8081EA03044A
:1029000023EA4C134EEAD47E21EA4C1141F48011A3
:1029100043F48013AE44A1FB024CA0FB0365AEF16F
:102920007F7E361955EB0C05A1FB034C4CF10003DF
:10293000A0FB021C16EB0C06654153F10003094293
:1029400018BF46F0010613F4007F0BD14FEA0331A4
:102950004FEA0530340341EA155140EA16506FF052
:1029600003020AE04FEAC3214FEAC520F40241EA1C
:10297000555140EA56506FF0020202EB2E4201EB35
:10298000025585EACE710AD05FEA440C18BF24F0E4
:10299000004450F1000041F1000120EAD47040F2FF
:1029A000FE7C624500D270BDA84214BF4FF0804447
:1029B0004FF04044002E08BF0024BEF1806FA8BF36
:1029C000A1F1C041BDE8704080F282804FF000006C
:1029D00001F1C04101F0004170479EEA0C0F0CEA82
:1029E000131518BF95EA0C0F06D04FF0000081EACE
:1029F000030E0EF0004170BD00F01CF88900013E8E
:102A000000F007B800F009B84FEA430C5FEA5C5CDD
:102A100008D081EA030100F05BB84FEA410C5FEA9D
:102A20005C5CF6D14FF00000014970470000FF07E1
:102A30000000F87F0EF1020E2EF0030E5EF8046B1C
:102A4000364205D4012A43EB030515F5001F12D8C1
:102A5000012841EB010C1CF5001F0CD80ED14FEAE8
:102A6000D17C15F5001F0CEB4C0C0CF1020C08BFCF
:102A70004CEBD37C04E04FF0080C01E04FEAD37C30
:102A80000CEB4C0526FA05F606F00706B6F1040C29
:102A900006D20EEB860CBDE870404CF0010C60478E
:102AA000DFE80CF0090B02024FF000414FF000008C
:102AB000A1F5002170BD19461046012851EB010413
:102AC00018BFD4F5001484BF002001F0004170BD90
:102AD0000808A0F500114FEA3101704743004FEAA2
:102AE000D30C4FEA3C0C43401FBF40070CF1605130
:102AF00013F0FE4F70471CF0006F03D100200CF064
:102B0000004170470CF0004343EA507010B540EAB2
:102B1000CC0000F026F900BF000000924FEA00014F
:102B2000FFF7D6BF4FF000414FF00000A1F50021A4
:102B30007047000090EA010F48BF81F0004100F1AA
:102B40006C81421A3CBF801A89184FEAD0524FF06C
:102B50007F4C1CEA410FA2EBD15318BF9CEA026FD5
:102B600000F03B804FF0004C4CEA00204CEA012181
:102B700021FA03FC10EB0C0C1ED202F1FF325FEACB
:102B80001C2040EBC25038BF70471CF07F0F4FEA4B
:102B9000400C18BFBCF17F4F38BF7047C3F1200312
:102BA000994008BF20F00100BCF17F4F38BF70474B
:102BB000A0F1C04000F01BB94FEA3C00000A40EB16
:102BC000C25028BF1CF0FF0F4FEA400CE6D018BFE0
:102BD000BCF17F4F38BF7047EAE79CEA026F05D02F
:102BE00010EA5C0F08BF00F00040704710B500F01D
:102BF000B8F800BF64FBBE3EC10DD1F19E0206DBFA
:102C00004FEA002343F0004323FA02F070470042EA
:102C100007D54FEA4001B1F1FE4F02D24FF000005C
:102C2000704710B500F09DF849922480002070474D
:102C30006FEA200070470000B0FA80F310FA03F248
:102C4000C3F19D030AD0D90501EB1220530638BF0A
:102C5000704700F1010008BF20F00100704700003C
:102C60004FF47F0C1CEAD0121EBF1CEAD11392EA6B
:102C70000C0F93EA0C0F00F0478090EA010F48BF59
:102C800042F480724FF0004C4CEA00204CEA0121E3
:102C900002EB0302A0FB0113A2F50002002918BFFA
:102CA00043F001035B0028BF4FEA330342EB2242AB
:102CB0005FEA132C4CEBC2502EBFBCEB436FB2F556
:102CC0007C0F70474FEA036CBCF1004F08BF20F047
:102CD0000100B2F57C0F38BF70470BD582F0FF02C0
:102CE00012F5803FC8BF704700F1C040D8BF00F068
:102CF0000040704700F5000C5FEA4C0C48BF70477D
:102D0000B0F1C04000F073B890EA010F0CEAD113A3
:102D100048BF42F48072624538BF634504D280EAFE
:102D2000010000F00040704710B500F01AF800BF35
:102D30008900013E00F007B800F009B85FEA410CD5
:102D40005FEA1C6C08D080EA010000F050B85FEA2E
:102D5000400C5FEA1C6CF6D14FF00040A0F58000FB
:102D600070470EF1020E2EF0030E5EF8044B244263
:102D700004D44FEA4102B2F17F4F11D84FEA400329
:102D8000B3F17F4F0CD80ED14FEAD07CB2F17F4F18
:102D90000CEB4C0C0CF1020C08BF4CEBD17C04E0AA
:102DA0004FF0080C01E04FEAD17C0CEB4C0324FA05
:102DB00003F404F00704B4F1040C06D20EEB840C07
:102DC000BDE810404CF0010C6047DFE80CF007084C
:102DD00002024FF00040A0F5800010BD08464200FE
:102DE00018BFD2F1807288BF00F0004010BDFF21F3
:102DF00041EAD050C005704780F0004090EA010FD2
:102E00007FF59FAE81F0004100F007B890EA010F16
:102E100048BF81F000413FF594AE421A04D882F0D9
:102E20000042A0EB020011444FEAD0524FF07F4C19
:102E30001CEA410FA2EBD15318BF9CEA026F4AD0A3
:102E40004FF0004C4CEA00204CEA012121FA03FC2F
:102E5000B0EB0C0C0FD412F0FE0F36D05FEA4C0032
:102E60001DD5001240EBC25038BF70471CF03F0F19
:102E700018BF70470BE0A2F101025FEA1C2040EB93
:102E8000C25038BF70471CF07F0F18BF7047C3F1A6
:102E90002003994014BF401E20F0010070478008B5
:102EA0004FEA122308BF7047B0FA80FCA2EB0C0275
:102EB000CCF1280C60FA0CF093EA122F04BF00EB5F
:102EC000C25070474FEAC3707047130A5FEADC10C4
:102ED00008BF7047F6E79CEA026F04D010EA5C0F67
:102EE00008BF0020704710B5FFF73BFF40DFF63EFC
:102EF00081F0004070470000000000000000010267
:102F00000304060708090000000001020304000092
:102F1000302F0008000000203400000028010008C5
:102F2000642F000834000020DC0700004401000882
:102F3000FC60DAF266B6BEE0FEF6EE3E9C7A9E8E4D
:102F40000100000000000000000000000000000080
:102F500000A24A0400000000000000000000000081
:042F6000000000006D
:04000005080000ED02
:00000001FF
